8=FIX.4.4|9=77|35=A|34=1|49=Initiator|52=20181224-01:27:56.622|56=Acceptor|98=0|108=6|141=Y|10=235|
8=FIX.4.4|9=77|35=A|34=1|49=Acceptor|52=20181224-01:27:56.668|56=Initiator|98=0|108=6|141=Y|10=245|
8=FIX.4.4|9=60|35=0|34=2|49=Acceptor|52=20181224-01:28:02.887|56=Initiator|10=191|
8=FIX.4.4|9=60|35=0|34=2|49=Initiator|52=20181224-01:28:02.894|56=Acceptor|10=189|
8=FIX.4.4|9=60|35=0|34=3|49=Acceptor|52=20181224-01:28:08.885|56=Initiator|10=196|
8=FIX.4.4|9=60|35=0|34=3|49=Initiator|52=20181224-01:28:08.894|56=Acceptor|10=196|
8=FIX.4.4|9=60|35=0|34=4|49=Acceptor|52=20181224-01:28:14.885|56=Initiator|10=194|
8=FIX.4.4|9=60|35=0|34=4|49=Initiator|52=20181224-01:28:14.890|56=Acceptor|10=190|
8=FIX.4.4|9=60|35=0|34=5|49=Acceptor|52=20181224-01:28:20.885|56=Initiator|10=192|
8=FIX.4.4|9=60|35=0|34=5|49=Initiator|52=20181224-01:28:20.891|56=Acceptor|10=189|
8=FIX.4.4|9=60|35=0|34=6|49=Acceptor|52=20181224-01:28:26.885|56=Initiator|10=199|
8=FIX.4.4|9=60|35=0|34=6|49=Initiator|52=20181224-01:28:26.889|56=Acceptor|10=203|
8=FIX.4.4|9=60|35=0|34=7|49=Acceptor|52=20181224-01:28:32.885|56=Initiator|10=197|
8=FIX.4.4|9=60|35=0|34=7|49=Initiator|52=20181224-01:28:32.890|56=Acceptor|10=193|
8=FIX.4.4|9=60|35=0|34=8|49=Acceptor|52=20181224-01:28:38.885|56=Initiator|10=204|
8=FIX.4.4|9=60|35=0|34=8|49=Initiator|52=20181224-01:28:38.889|56=Acceptor|10=208|
8=FIX.4.4|9=60|35=0|34=9|49=Acceptor|52=20181224-01:28:44.886|56=Initiator|10=203|
8=FIX.4.4|9=60|35=0|34=9|49=Initiator|52=20181224-01:28:44.890|56=Acceptor|10=198|
8=FIX.4.4|9=61|35=0|34=10|49=Acceptor|52=20181224-01:28:50.885|56=Initiator|10=240|
8=FIX.4.4|9=61|35=0|34=10|49=Initiator|52=20181224-01:28:50.889|56=Acceptor|10=244|
8=FIX.4.4|9=61|35=0|34=11|49=Acceptor|52=20181224-01:28:56.885|56=Initiator|10=247|
8=FIX.4.4|9=61|35=0|34=11|49=Initiator|52=20181224-01:28:56.891|56=Acceptor|10=244|
8=FIX.4.4|9=61|35=0|34=12|49=Acceptor|52=20181224-01:29:02.885|56=Initiator|10=240|
8=FIX.4.4|9=61|35=0|34=12|49=Initiator|52=20181224-01:29:02.889|56=Acceptor|10=244|
8=FIX.4.4|9=77|35=A|34=1|49=Initiator|52=20181226-19:05:30.630|56=Acceptor|98=0|108=6|141=Y|10=233|
8=FIX.4.4|9=77|35=A|34=1|49=Acceptor|52=20181226-19:05:30.693|56=Initiator|98=0|108=6|141=Y|10=242|
8=FIX.4.4|9=60|35=0|34=2|49=Acceptor|52=20181226-19:05:37.560|56=Initiator|10=193|
8=FIX.4.4|9=60|35=0|34=2|49=Initiator|52=20181226-19:05:37.568|56=Acceptor|10=201|
8=FIX.4.4|9=60|35=0|34=3|49=Acceptor|52=20181226-19:05:43.556|56=Initiator|10=196|
8=FIX.4.4|9=60|35=0|34=3|49=Initiator|52=20181226-19:05:43.561|56=Acceptor|10=192|
8=FIX.4.4|9=60|35=0|34=4|49=Acceptor|52=20181226-19:05:49.556|56=Initiator|10=203|
8=FIX.4.4|9=60|35=0|34=4|49=Initiator|52=20181226-19:05:49.561|56=Acceptor|10=199|
8=FIX.4.4|9=60|35=0|34=5|49=Acceptor|52=20181226-19:05:55.556|56=Initiator|10=201|
8=FIX.4.4|9=60|35=0|34=5|49=Initiator|52=20181226-19:05:55.561|56=Acceptor|10=197|
8=FIX.4.4|9=60|35=0|34=6|49=Acceptor|52=20181226-19:06:01.556|56=Initiator|10=194|
8=FIX.4.4|9=60|35=0|34=6|49=Initiator|52=20181226-19:06:01.562|56=Acceptor|10=191|
8=FIX.4.4|9=60|35=0|34=7|49=Acceptor|52=20181226-19:06:07.555|56=Initiator|10=200|
8=FIX.4.4|9=60|35=0|34=7|49=Initiator|52=20181226-19:06:07.559|56=Acceptor|10=204|
8=FIX.4.4|9=60|35=0|34=8|49=Acceptor|52=20181226-19:06:13.556|56=Initiator|10=199|
8=FIX.4.4|9=60|35=0|34=8|49=Initiator|52=20181226-19:06:13.560|56=Acceptor|10=194|
8=FIX.4.4|9=71|35=A|34=9|49=Initiator|52=20181226-19:06:24.642|56=Acceptor|98=0|108=6|10=197|
8=FIX.4.4|9=71|35=A|34=1|49=Acceptor|52=20181226-19:06:24.678|56=Initiator|98=0|108=6|10=198|
8=FIX.4.4|9=69|35=2|34=2|49=Acceptor|52=20181226-19:06:24.681|56=Initiator|7=1|16=0|10=072|
8=FIX.4.4|9=110|35=5|34=10|49=Initiator|52=20181226-19:06:24.691|56=Acceptor|58=MsgSeqNum too low, expecting 9 but received 1|10=193|
8=FIX.4.4|9=60|35=5|34=3|49=Acceptor|52=20181226-19:06:24.699|56=Initiator|10=209|
8=FIX.4.4|9=77|35=A|34=1|49=Initiator|52=20181226-19:06:54.617|56=Acceptor|98=0|108=6|141=Y|10=245|
8=FIX.4.4|9=77|35=A|34=1|49=Acceptor|52=20181226-19:06:54.627|56=Initiator|98=0|108=6|141=Y|10=246|
8=FIX.4.4|9=60|35=0|34=2|49=Initiator|52=20181226-19:07:00.618|56=Acceptor|10=189|
8=FIX.4.4|9=60|35=0|34=2|49=Acceptor|52=20181226-19:07:00.622|56=Initiator|10=184|
8=FIX.4.4|9=60|35=0|34=3|49=Initiator|52=20181226-19:07:06.617|56=Acceptor|10=195|
8=FIX.4.4|9=60|35=0|34=3|49=Acceptor|52=20181226-19:07:06.620|56=Initiator|10=189|
8=FIX.4.4|9=71|35=A|34=4|49=Initiator|52=20181226-19:07:15.426|56=Acceptor|98=0|108=6|10=193|
8=FIX.4.4|9=71|35=A|34=1|49=Acceptor|52=20181226-19:07:15.442|56=Initiator|98=0|108=6|10=188|
8=FIX.4.4|9=69|35=2|34=2|49=Acceptor|52=20181226-19:07:15.444|56=Initiator|7=1|16=0|10=070|
8=FIX.4.4|9=109|35=5|34=5|49=Initiator|52=20181226-19:07:15.454|56=Acceptor|58=MsgSeqNum too low, expecting 4 but received 1|10=150|
8=FIX.4.4|9=60|35=5|34=3|49=Acceptor|52=20181226-19:07:15.462|56=Initiator|10=198|
8=FIX.4.4|9=77|35=A|34=1|49=Initiator|52=20181226-19:07:45.402|56=Acceptor|98=0|108=6|141=Y|10=238|
8=FIX.4.4|9=77|35=A|34=1|49=Acceptor|52=20181226-19:07:45.411|56=Initiator|98=0|108=6|141=Y|10=238|
8=FIX.4.4|9=60|35=0|34=2|49=Initiator|52=20181226-19:07:51.403|56=Acceptor|10=187|
8=FIX.4.4|9=60|35=0|34=2|49=Acceptor|52=20181226-19:07:51.408|56=Initiator|10=192|
8=FIX.4.4|9=60|35=0|34=3|49=Initiator|52=20181226-19:07:57.402|56=Acceptor|10=193|
8=FIX.4.4|9=60|35=0|34=3|49=Acceptor|52=20181226-19:07:57.406|56=Initiator|10=197|
8=FIX.4.4|9=60|35=0|34=4|49=Initiator|52=20181226-19:08:03.402|56=Acceptor|10=186|
8=FIX.4.4|9=60|35=0|34=4|49=Acceptor|52=20181226-19:08:03.405|56=Initiator|10=189|
8=FIX.4.4|9=60|35=0|34=5|49=Initiator|52=20181226-19:08:09.401|56=Acceptor|10=192|
8=FIX.4.4|9=60|35=0|34=5|49=Acceptor|52=20181226-19:08:09.404|56=Initiator|10=195|
8=FIX.4.4|9=60|35=0|34=6|49=Initiator|52=20181226-19:08:15.401|56=Acceptor|10=190|
8=FIX.4.4|9=60|35=0|34=6|49=Acceptor|52=20181226-19:08:15.404|56=Initiator|10=193|
8=FIX.4.4|9=60|35=0|34=7|49=Initiator|52=20181226-19:08:21.401|56=Acceptor|10=188|
8=FIX.4.4|9=60|35=0|34=7|49=Acceptor|52=20181226-19:08:21.404|56=Initiator|10=191|
8=FIX.4.4|9=60|35=0|34=8|49=Initiator|52=20181226-19:08:27.401|56=Acceptor|10=195|
8=FIX.4.4|9=60|35=0|34=8|49=Acceptor|52=20181226-19:08:27.404|56=Initiator|10=198|
8=FIX.4.4|9=60|35=0|34=9|49=Initiator|52=20181226-19:08:33.401|56=Acceptor|10=193|
8=FIX.4.4|9=60|35=0|34=9|49=Acceptor|52=20181226-19:08:33.404|56=Initiator|10=196|
8=FIX.4.4|9=61|35=0|34=10|49=Initiator|52=20181226-19:08:39.401|56=Acceptor|10=240|
8=FIX.4.4|9=61|35=0|34=10|49=Acceptor|52=20181226-19:08:39.404|56=Initiator|10=243|
8=FIX.4.4|9=61|35=0|34=11|49=Initiator|52=20181226-19:08:45.401|56=Acceptor|10=238|
8=FIX.4.4|9=61|35=0|34=11|49=Acceptor|52=20181226-19:08:45.404|56=Initiator|10=241|
8=FIX.4.4|9=61|35=0|34=12|49=Initiator|52=20181226-19:08:51.401|56=Acceptor|10=236|
8=FIX.4.4|9=61|35=0|34=12|49=Acceptor|52=20181226-19:08:51.405|56=Initiator|10=240|
8=FIX.4.4|9=61|35=0|34=13|49=Initiator|52=20181226-19:08:57.401|56=Acceptor|10=243|
8=FIX.4.4|9=61|35=0|34=13|49=Acceptor|52=20181226-19:08:57.405|56=Initiator|10=247|
8=FIX.4.4|9=61|35=0|34=14|49=Initiator|52=20181226-19:09:03.401|56=Acceptor|10=236|
8=FIX.4.4|9=61|35=0|34=14|49=Acceptor|52=20181226-19:09:03.404|56=Initiator|10=239|
8=FIX.4.4|9=61|35=0|34=15|49=Initiator|52=20181226-19:09:09.401|56=Acceptor|10=243|
8=FIX.4.4|9=61|35=0|34=15|49=Acceptor|52=20181226-19:09:09.404|56=Initiator|10=246|
8=FIX.4.4|9=61|35=0|34=16|49=Initiator|52=20181226-19:09:15.401|56=Acceptor|10=241|
8=FIX.4.4|9=61|35=0|34=16|49=Acceptor|52=20181226-19:09:15.405|56=Initiator|10=245|
8=FIX.4.4|9=61|35=0|34=17|49=Initiator|52=20181226-19:09:21.402|56=Acceptor|10=240|
8=FIX.4.4|9=61|35=0|34=17|49=Acceptor|52=20181226-19:09:21.408|56=Initiator|10=246|
8=FIX.4.4|9=61|35=0|34=18|49=Initiator|52=20181226-19:09:27.401|56=Acceptor|10=246|
8=FIX.4.4|9=61|35=0|34=18|49=Acceptor|52=20181226-19:09:27.404|56=Initiator|10=249|
8=FIX.4.4|9=61|35=0|34=19|49=Initiator|52=20181226-19:09:33.401|56=Acceptor|10=244|
8=FIX.4.4|9=61|35=0|34=19|49=Acceptor|52=20181226-19:09:33.403|56=Initiator|10=246|
8=FIX.4.4|9=61|35=0|34=20|49=Initiator|52=20181226-19:09:39.401|56=Acceptor|10=242|
8=FIX.4.4|9=61|35=0|34=20|49=Acceptor|52=20181226-19:09:39.403|56=Initiator|10=244|
8=FIX.4.4|9=61|35=0|34=21|49=Initiator|52=20181226-19:09:45.401|56=Acceptor|10=240|
8=FIX.4.4|9=61|35=0|34=21|49=Acceptor|52=20181226-19:09:45.406|56=Initiator|10=245|
8=FIX.4.4|9=61|35=0|34=22|49=Initiator|52=20181226-19:09:51.401|56=Acceptor|10=238|
8=FIX.4.4|9=61|35=0|34=22|49=Acceptor|52=20181226-19:09:51.404|56=Initiator|10=241|
8=FIX.4.4|9=61|35=0|34=23|49=Initiator|52=20181226-19:09:57.401|56=Acceptor|10=245|
8=FIX.4.4|9=61|35=0|34=23|49=Acceptor|52=20181226-19:09:57.403|56=Initiator|10=247|
8=FIX.4.4|9=61|35=0|34=24|49=Initiator|52=20181226-19:10:03.402|56=Acceptor|10=230|
8=FIX.4.4|9=61|35=0|34=24|49=Acceptor|52=20181226-19:10:03.406|56=Initiator|10=234|
8=FIX.4.4|9=61|35=0|34=25|49=Initiator|52=20181226-19:10:09.401|56=Acceptor|10=236|
8=FIX.4.4|9=61|35=0|34=25|49=Acceptor|52=20181226-19:10:09.405|56=Initiator|10=240|
8=FIX.4.4|9=61|35=0|34=26|49=Initiator|52=20181226-19:10:15.401|56=Acceptor|10=234|
8=FIX.4.4|9=61|35=0|34=26|49=Acceptor|52=20181226-19:10:15.408|56=Initiator|10=241|
8=FIX.4.4|9=61|35=0|34=27|49=Initiator|52=20181226-19:10:21.402|56=Acceptor|10=233|
8=FIX.4.4|9=61|35=0|34=27|49=Acceptor|52=20181226-19:10:21.405|56=Initiator|10=236|
8=FIX.4.4|9=61|35=0|34=28|49=Initiator|52=20181226-19:10:27.401|56=Acceptor|10=239|
8=FIX.4.4|9=61|35=0|34=28|49=Acceptor|52=20181226-19:10:27.406|56=Initiator|10=244|
8=FIX.4.4|9=61|35=0|34=29|49=Initiator|52=20181226-19:10:33.401|56=Acceptor|10=237|
8=FIX.4.4|9=61|35=0|34=29|49=Acceptor|52=20181226-19:10:33.403|56=Initiator|10=239|
8=FIX.4.4|9=61|35=0|34=30|49=Initiator|52=20181226-19:10:39.401|56=Acceptor|10=235|
8=FIX.4.4|9=61|35=0|34=30|49=Acceptor|52=20181226-19:10:39.404|56=Initiator|10=238|
8=FIX.4.4|9=61|35=0|34=31|49=Initiator|52=20181226-19:10:45.401|56=Acceptor|10=233|
8=FIX.4.4|9=61|35=0|34=31|49=Acceptor|52=20181226-19:10:45.407|56=Initiator|10=239|
8=FIX.4.4|9=61|35=0|34=32|49=Initiator|52=20181226-19:10:51.401|56=Acceptor|10=231|
8=FIX.4.4|9=61|35=0|34=32|49=Acceptor|52=20181226-19:10:51.405|56=Initiator|10=235|
8=FIX.4.4|9=61|35=0|34=33|49=Initiator|52=20181226-19:10:57.401|56=Acceptor|10=238|
8=FIX.4.4|9=61|35=0|34=33|49=Acceptor|52=20181226-19:10:57.405|56=Initiator|10=242|
8=FIX.4.4|9=61|35=0|34=34|49=Initiator|52=20181226-19:11:03.401|56=Acceptor|10=231|
8=FIX.4.4|9=61|35=0|34=34|49=Acceptor|52=20181226-19:11:03.404|56=Initiator|10=234|
8=FIX.4.4|9=61|35=0|34=35|49=Initiator|52=20181226-19:11:09.401|56=Acceptor|10=238|
8=FIX.4.4|9=61|35=0|34=35|49=Acceptor|52=20181226-19:11:09.404|56=Initiator|10=241|
8=FIX.4.4|9=61|35=0|34=36|49=Initiator|52=20181226-19:11:15.401|56=Acceptor|10=236|
8=FIX.4.4|9=61|35=0|34=36|49=Acceptor|52=20181226-19:11:15.404|56=Initiator|10=239|
8=FIX.4.4|9=61|35=0|34=37|49=Initiator|52=20181226-19:11:21.401|56=Acceptor|10=234|
8=FIX.4.4|9=61|35=0|34=37|49=Acceptor|52=20181226-19:11:21.405|56=Initiator|10=238|
8=FIX.4.4|9=61|35=0|34=38|49=Initiator|52=20181226-19:11:27.401|56=Acceptor|10=241|
8=FIX.4.4|9=61|35=0|34=38|49=Acceptor|52=20181226-19:11:27.403|56=Initiator|10=243|
8=FIX.4.4|9=61|35=0|34=39|49=Initiator|52=20181226-19:11:33.401|56=Acceptor|10=239|
8=FIX.4.4|9=61|35=0|34=39|49=Acceptor|52=20181226-19:11:33.403|56=Initiator|10=241|
8=FIX.4.4|9=61|35=0|34=40|49=Initiator|52=20181226-19:11:39.401|56=Acceptor|10=237|
8=FIX.4.4|9=61|35=0|34=40|49=Acceptor|52=20181226-19:11:39.404|56=Initiator|10=240|
8=FIX.4.4|9=61|35=0|34=41|49=Initiator|52=20181226-19:11:45.401|56=Acceptor|10=235|
8=FIX.4.4|9=61|35=0|34=41|49=Acceptor|52=20181226-19:11:45.404|56=Initiator|10=238|
8=FIX.4.4|9=61|35=0|34=42|49=Initiator|52=20181226-19:11:51.401|56=Acceptor|10=233|
8=FIX.4.4|9=61|35=0|34=42|49=Acceptor|52=20181226-19:11:51.404|56=Initiator|10=236|
8=FIX.4.4|9=61|35=0|34=43|49=Initiator|52=20181226-19:11:57.401|56=Acceptor|10=240|
8=FIX.4.4|9=61|35=0|34=43|49=Acceptor|52=20181226-19:11:57.404|56=Initiator|10=243|
8=FIX.4.4|9=61|35=0|34=44|49=Initiator|52=20181226-19:12:03.401|56=Acceptor|10=233|
8=FIX.4.4|9=61|35=0|34=44|49=Acceptor|52=20181226-19:12:03.403|56=Initiator|10=235|
8=FIX.4.4|9=61|35=0|34=45|49=Initiator|52=20181226-19:12:09.401|56=Acceptor|10=240|
8=FIX.4.4|9=61|35=0|34=45|49=Acceptor|52=20181226-19:12:09.404|56=Initiator|10=243|
8=FIX.4.4|9=61|35=0|34=46|49=Initiator|52=20181226-19:12:15.401|56=Acceptor|10=238|
8=FIX.4.4|9=61|35=0|34=46|49=Acceptor|52=20181226-19:12:15.405|56=Initiator|10=242|
8=FIX.4.4|9=61|35=0|34=47|49=Initiator|52=20181226-19:12:21.401|56=Acceptor|10=236|
8=FIX.4.4|9=61|35=0|34=47|49=Acceptor|52=20181226-19:12:21.405|56=Initiator|10=240|
8=FIX.4.4|9=61|35=0|34=48|49=Initiator|52=20181226-19:12:27.401|56=Acceptor|10=243|
8=FIX.4.4|9=61|35=0|34=48|49=Acceptor|52=20181226-19:12:27.405|56=Initiator|10=247|
8=FIX.4.4|9=61|35=0|34=49|49=Initiator|52=20181226-19:12:33.401|56=Acceptor|10=241|
8=FIX.4.4|9=61|35=0|34=49|49=Acceptor|52=20181226-19:12:33.405|56=Initiator|10=245|
8=FIX.4.4|9=61|35=0|34=50|49=Initiator|52=20181226-19:12:39.401|56=Acceptor|10=239|
8=FIX.4.4|9=61|35=0|34=50|49=Acceptor|52=20181226-19:12:39.404|56=Initiator|10=242|
8=FIX.4.4|9=61|35=0|34=51|49=Initiator|52=20181226-19:12:45.401|56=Acceptor|10=237|
8=FIX.4.4|9=61|35=0|34=51|49=Acceptor|52=20181226-19:12:45.404|56=Initiator|10=240|
8=FIX.4.4|9=61|35=0|34=52|49=Initiator|52=20181226-19:12:51.401|56=Acceptor|10=235|
8=FIX.4.4|9=61|35=0|34=52|49=Acceptor|52=20181226-19:12:51.405|56=Initiator|10=239|
8=FIX.4.4|9=61|35=0|34=53|49=Initiator|52=20181226-19:12:57.401|56=Acceptor|10=242|
8=FIX.4.4|9=61|35=0|34=53|49=Acceptor|52=20181226-19:12:57.403|56=Initiator|10=244|
8=FIX.4.4|9=61|35=0|34=54|49=Initiator|52=20181226-19:13:03.401|56=Acceptor|10=235|
8=FIX.4.4|9=61|35=0|34=54|49=Acceptor|52=20181226-19:13:03.404|56=Initiator|10=238|
8=FIX.4.4|9=61|35=0|34=55|49=Initiator|52=20181226-19:13:09.401|56=Acceptor|10=242|
8=FIX.4.4|9=61|35=0|34=55|49=Acceptor|52=20181226-19:13:09.403|56=Initiator|10=244|
8=FIX.4.4|9=61|35=0|34=56|49=Initiator|52=20181226-19:13:15.401|56=Acceptor|10=240|
8=FIX.4.4|9=61|35=0|34=56|49=Acceptor|52=20181226-19:13:15.403|56=Initiator|10=242|
8=FIX.4.4|9=61|35=0|34=57|49=Initiator|52=20181226-19:13:21.401|56=Acceptor|10=238|
8=FIX.4.4|9=61|35=0|34=57|49=Acceptor|52=20181226-19:13:21.403|56=Initiator|10=240|
8=FIX.4.4|9=61|35=0|34=58|49=Initiator|52=20181226-19:13:27.401|56=Acceptor|10=245|
8=FIX.4.4|9=61|35=0|34=58|49=Acceptor|52=20181226-19:13:27.404|56=Initiator|10=248|
8=FIX.4.4|9=61|35=0|34=59|49=Initiator|52=20181226-19:13:33.401|56=Acceptor|10=243|
8=FIX.4.4|9=61|35=0|34=59|49=Acceptor|52=20181226-19:13:33.404|56=Initiator|10=246|
8=FIX.4.4|9=61|35=0|34=60|49=Initiator|52=20181226-19:13:39.401|56=Acceptor|10=241|
8=FIX.4.4|9=61|35=0|34=60|49=Acceptor|52=20181226-19:13:39.403|56=Initiator|10=243|
8=FIX.4.4|9=61|35=0|34=61|49=Initiator|52=20181226-19:13:45.401|56=Acceptor|10=239|
8=FIX.4.4|9=61|35=0|34=61|49=Acceptor|52=20181226-19:13:45.404|56=Initiator|10=242|
8=FIX.4.4|9=61|35=0|34=62|49=Initiator|52=20181226-19:13:51.401|56=Acceptor|10=237|
8=FIX.4.4|9=61|35=0|34=62|49=Acceptor|52=20181226-19:13:51.405|56=Initiator|10=241|
8=FIX.4.4|9=61|35=0|34=63|49=Initiator|52=20181226-19:13:57.401|56=Acceptor|10=244|
8=FIX.4.4|9=61|35=0|34=63|49=Acceptor|52=20181226-19:13:57.404|56=Initiator|10=247|
8=FIX.4.4|9=61|35=0|34=64|49=Initiator|52=20181226-19:14:03.401|56=Acceptor|10=237|
8=FIX.4.4|9=61|35=0|34=64|49=Acceptor|52=20181226-19:14:03.404|56=Initiator|10=240|
8=FIX.4.4|9=61|35=0|34=65|49=Initiator|52=20181226-19:14:09.401|56=Acceptor|10=244|
8=FIX.4.4|9=61|35=0|34=65|49=Acceptor|52=20181226-19:14:09.403|56=Initiator|10=246|
8=FIX.4.4|9=61|35=0|34=66|49=Initiator|52=20181226-19:14:15.401|56=Acceptor|10=242|
8=FIX.4.4|9=61|35=0|34=66|49=Acceptor|52=20181226-19:14:15.404|56=Initiator|10=245|
8=FIX.4.4|9=61|35=0|34=67|49=Initiator|52=20181226-19:14:21.401|56=Acceptor|10=240|
8=FIX.4.4|9=61|35=0|34=67|49=Acceptor|52=20181226-19:14:21.403|56=Initiator|10=242|
8=FIX.4.4|9=61|35=0|34=68|49=Initiator|52=20181226-19:14:27.401|56=Acceptor|10=247|
8=FIX.4.4|9=61|35=0|34=68|49=Acceptor|52=20181226-19:14:27.406|56=Initiator|10=252|
8=FIX.4.4|9=61|35=0|34=69|49=Initiator|52=20181226-19:14:33.401|56=Acceptor|10=245|
8=FIX.4.4|9=61|35=0|34=69|49=Acceptor|52=20181226-19:14:33.404|56=Initiator|10=248|
8=FIX.4.4|9=61|35=0|34=70|49=Initiator|52=20181226-19:14:39.401|56=Acceptor|10=243|
8=FIX.4.4|9=61|35=0|34=70|49=Acceptor|52=20181226-19:14:39.405|56=Initiator|10=247|
8=FIX.4.4|9=61|35=0|34=71|49=Initiator|52=20181226-19:14:45.401|56=Acceptor|10=241|
8=FIX.4.4|9=61|35=0|34=71|49=Acceptor|52=20181226-19:14:45.404|56=Initiator|10=244|
8=FIX.4.4|9=61|35=0|34=72|49=Initiator|52=20181226-19:14:51.401|56=Acceptor|10=239|
8=FIX.4.4|9=61|35=0|34=72|49=Acceptor|52=20181226-19:14:51.404|56=Initiator|10=242|
8=FIX.4.4|9=61|35=0|34=73|49=Initiator|52=20181226-19:14:57.401|56=Acceptor|10=246|
8=FIX.4.4|9=61|35=0|34=73|49=Acceptor|52=20181226-19:14:57.404|56=Initiator|10=249|
8=FIX.4.4|9=61|35=0|34=74|49=Initiator|52=20181226-19:15:03.401|56=Acceptor|10=239|
8=FIX.4.4|9=61|35=0|34=74|49=Acceptor|52=20181226-19:15:03.404|56=Initiator|10=242|
8=FIX.4.4|9=61|35=0|34=75|49=Initiator|52=20181226-19:15:09.401|56=Acceptor|10=246|
8=FIX.4.4|9=61|35=0|34=75|49=Acceptor|52=20181226-19:15:09.404|56=Initiator|10=249|
8=FIX.4.4|9=61|35=0|34=76|49=Initiator|52=20181226-19:15:15.401|56=Acceptor|10=244|
8=FIX.4.4|9=61|35=0|34=76|49=Acceptor|52=20181226-19:15:15.404|56=Initiator|10=247|
8=FIX.4.4|9=61|35=0|34=77|49=Initiator|52=20181226-19:15:21.401|56=Acceptor|10=242|
8=FIX.4.4|9=61|35=0|34=77|49=Acceptor|52=20181226-19:15:21.404|56=Initiator|10=245|
8=FIX.4.4|9=61|35=0|34=78|49=Initiator|52=20181226-19:15:27.401|56=Acceptor|10=249|
8=FIX.4.4|9=61|35=0|34=78|49=Acceptor|52=20181226-19:15:27.404|56=Initiator|10=252|
8=FIX.4.4|9=61|35=0|34=79|49=Initiator|52=20181226-19:15:33.401|56=Acceptor|10=247|
8=FIX.4.4|9=61|35=0|34=79|49=Acceptor|52=20181226-19:15:33.404|56=Initiator|10=250|
8=FIX.4.4|9=61|35=0|34=80|49=Initiator|52=20181226-19:15:39.401|56=Acceptor|10=245|
8=FIX.4.4|9=61|35=0|34=80|49=Acceptor|52=20181226-19:15:39.404|56=Initiator|10=248|
8=FIX.4.4|9=61|35=0|34=81|49=Initiator|52=20181226-19:15:45.401|56=Acceptor|10=243|
8=FIX.4.4|9=61|35=0|34=81|49=Acceptor|52=20181226-19:15:45.404|56=Initiator|10=246|
8=FIX.4.4|9=61|35=0|34=82|49=Initiator|52=20181226-19:15:51.401|56=Acceptor|10=241|
8=FIX.4.4|9=61|35=0|34=82|49=Acceptor|52=20181226-19:15:51.404|56=Initiator|10=244|
8=FIX.4.4|9=61|35=0|34=83|49=Initiator|52=20181226-19:15:57.401|56=Acceptor|10=248|
8=FIX.4.4|9=61|35=0|34=83|49=Acceptor|52=20181226-19:15:57.404|56=Initiator|10=251|
8=FIX.4.4|9=61|35=0|34=84|49=Initiator|52=20181226-19:16:03.401|56=Acceptor|10=241|
8=FIX.4.4|9=61|35=0|34=84|49=Acceptor|52=20181226-19:16:03.404|56=Initiator|10=244|
8=FIX.4.4|9=61|35=0|34=85|49=Initiator|52=20181226-19:16:09.401|56=Acceptor|10=248|
8=FIX.4.4|9=61|35=0|34=85|49=Acceptor|52=20181226-19:16:09.404|56=Initiator|10=251|
8=FIX.4.4|9=61|35=0|34=86|49=Initiator|52=20181226-19:16:15.401|56=Acceptor|10=246|
8=FIX.4.4|9=61|35=0|34=86|49=Acceptor|52=20181226-19:16:15.404|56=Initiator|10=249|
8=FIX.4.4|9=61|35=0|34=87|49=Initiator|52=20181226-19:16:21.401|56=Acceptor|10=244|
8=FIX.4.4|9=61|35=0|34=87|49=Acceptor|52=20181226-19:16:21.404|56=Initiator|10=247|
8=FIX.4.4|9=61|35=0|34=88|49=Initiator|52=20181226-19:16:27.401|56=Acceptor|10=251|
8=FIX.4.4|9=61|35=0|34=88|49=Acceptor|52=20181226-19:16:27.404|56=Initiator|10=254|
8=FIX.4.4|9=61|35=0|34=89|49=Initiator|52=20181226-19:16:33.401|56=Acceptor|10=249|
8=FIX.4.4|9=61|35=0|34=89|49=Acceptor|52=20181226-19:16:33.404|56=Initiator|10=252|
8=FIX.4.4|9=61|35=0|34=90|49=Initiator|52=20181226-19:16:39.401|56=Acceptor|10=247|
8=FIX.4.4|9=61|35=0|34=90|49=Acceptor|52=20181226-19:16:39.404|56=Initiator|10=250|
8=FIX.4.4|9=61|35=0|34=91|49=Initiator|52=20181226-19:16:45.401|56=Acceptor|10=245|
8=FIX.4.4|9=61|35=0|34=91|49=Acceptor|52=20181226-19:16:45.404|56=Initiator|10=248|
8=FIX.4.4|9=61|35=0|34=92|49=Initiator|52=20181226-19:16:51.401|56=Acceptor|10=243|
8=FIX.4.4|9=61|35=0|34=92|49=Acceptor|52=20181226-19:16:51.404|56=Initiator|10=246|
8=FIX.4.4|9=61|35=0|34=93|49=Initiator|52=20181226-19:16:57.401|56=Acceptor|10=250|
8=FIX.4.4|9=61|35=0|34=93|49=Acceptor|52=20181226-19:16:57.404|56=Initiator|10=253|
8=FIX.4.4|9=61|35=0|34=94|49=Initiator|52=20181226-19:17:03.401|56=Acceptor|10=243|
8=FIX.4.4|9=61|35=0|34=94|49=Acceptor|52=20181226-19:17:03.404|56=Initiator|10=246|
8=FIX.4.4|9=61|35=0|34=95|49=Initiator|52=20181226-19:17:09.401|56=Acceptor|10=250|
8=FIX.4.4|9=61|35=0|34=95|49=Acceptor|52=20181226-19:17:09.404|56=Initiator|10=253|
8=FIX.4.4|9=61|35=0|34=96|49=Initiator|52=20181226-19:17:15.401|56=Acceptor|10=248|
8=FIX.4.4|9=61|35=0|34=96|49=Acceptor|52=20181226-19:17:15.404|56=Initiator|10=251|
8=FIX.4.4|9=61|35=0|34=97|49=Initiator|52=20181226-19:17:21.401|56=Acceptor|10=246|
8=FIX.4.4|9=61|35=0|34=97|49=Acceptor|52=20181226-19:17:21.404|56=Initiator|10=249|
8=FIX.4.4|9=61|35=0|34=98|49=Initiator|52=20181226-19:17:27.401|56=Acceptor|10=253|
8=FIX.4.4|9=61|35=0|34=98|49=Acceptor|52=20181226-19:17:27.404|56=Initiator|10=000|
8=FIX.4.4|9=61|35=0|34=99|49=Initiator|52=20181226-19:17:33.401|56=Acceptor|10=251|
8=FIX.4.4|9=61|35=0|34=99|49=Acceptor|52=20181226-19:17:33.404|56=Initiator|10=254|
8=FIX.4.4|9=62|35=0|34=100|49=Initiator|52=20181226-19:17:39.401|56=Acceptor|10=033|
8=FIX.4.4|9=62|35=0|34=100|49=Acceptor|52=20181226-19:17:39.404|56=Initiator|10=036|
8=FIX.4.4|9=62|35=0|34=101|49=Initiator|52=20181226-19:17:45.401|56=Acceptor|10=031|
8=FIX.4.4|9=62|35=0|34=101|49=Acceptor|52=20181226-19:17:45.404|56=Initiator|10=034|
8=FIX.4.4|9=62|35=0|34=102|49=Initiator|52=20181226-19:17:51.401|56=Acceptor|10=029|
8=FIX.4.4|9=62|35=0|34=102|49=Acceptor|52=20181226-19:17:51.404|56=Initiator|10=032|
8=FIX.4.4|9=62|35=0|34=103|49=Initiator|52=20181226-19:17:57.401|56=Acceptor|10=036|
8=FIX.4.4|9=62|35=0|34=103|49=Acceptor|52=20181226-19:17:57.404|56=Initiator|10=039|
8=FIX.4.4|9=62|35=0|34=104|49=Initiator|52=20181226-19:18:03.401|56=Acceptor|10=029|
8=FIX.4.4|9=62|35=0|34=104|49=Acceptor|52=20181226-19:18:03.404|56=Initiator|10=032|
8=FIX.4.4|9=62|35=0|34=105|49=Initiator|52=20181226-19:18:09.401|56=Acceptor|10=036|
8=FIX.4.4|9=62|35=0|34=105|49=Acceptor|52=20181226-19:18:09.404|56=Initiator|10=039|
8=FIX.4.4|9=62|35=0|34=106|49=Initiator|52=20181226-19:18:15.401|56=Acceptor|10=034|
8=FIX.4.4|9=62|35=0|34=106|49=Acceptor|52=20181226-19:18:15.404|56=Initiator|10=037|
8=FIX.4.4|9=62|35=0|34=107|49=Initiator|52=20181226-19:18:21.401|56=Acceptor|10=032|
8=FIX.4.4|9=62|35=0|34=107|49=Acceptor|52=20181226-19:18:21.404|56=Initiator|10=035|
8=FIX.4.4|9=62|35=0|34=108|49=Initiator|52=20181226-19:18:27.401|56=Acceptor|10=039|
8=FIX.4.4|9=62|35=0|34=108|49=Acceptor|52=20181226-19:18:27.403|56=Initiator|10=041|
8=FIX.4.4|9=62|35=0|34=109|49=Initiator|52=20181226-19:18:33.401|56=Acceptor|10=037|
8=FIX.4.4|9=62|35=0|34=109|49=Acceptor|52=20181226-19:18:33.404|56=Initiator|10=040|
8=FIX.4.4|9=62|35=0|34=110|49=Initiator|52=20181226-19:18:39.401|56=Acceptor|10=035|
8=FIX.4.4|9=62|35=0|34=110|49=Acceptor|52=20181226-19:18:39.404|56=Initiator|10=038|
8=FIX.4.4|9=62|35=0|34=111|49=Initiator|52=20181226-19:18:45.401|56=Acceptor|10=033|
8=FIX.4.4|9=62|35=0|34=111|49=Acceptor|52=20181226-19:18:45.404|56=Initiator|10=036|
8=FIX.4.4|9=62|35=0|34=112|49=Initiator|52=20181226-19:18:51.401|56=Acceptor|10=031|
8=FIX.4.4|9=62|35=0|34=112|49=Acceptor|52=20181226-19:18:51.404|56=Initiator|10=034|
8=FIX.4.4|9=62|35=0|34=113|49=Initiator|52=20181226-19:18:57.401|56=Acceptor|10=038|
8=FIX.4.4|9=62|35=0|34=113|49=Acceptor|52=20181226-19:18:57.406|56=Initiator|10=043|
8=FIX.4.4|9=62|35=0|34=114|49=Initiator|52=20181226-19:19:03.401|56=Acceptor|10=031|
8=FIX.4.4|9=62|35=0|34=114|49=Acceptor|52=20181226-19:19:03.404|56=Initiator|10=034|
8=FIX.4.4|9=62|35=0|34=115|49=Initiator|52=20181226-19:19:09.401|56=Acceptor|10=038|
8=FIX.4.4|9=62|35=0|34=115|49=Acceptor|52=20181226-19:19:09.404|56=Initiator|10=041|
8=FIX.4.4|9=62|35=0|34=116|49=Initiator|52=20181226-19:19:15.401|56=Acceptor|10=036|
8=FIX.4.4|9=62|35=0|34=116|49=Acceptor|52=20181226-19:19:15.404|56=Initiator|10=039|
8=FIX.4.4|9=62|35=0|34=117|49=Initiator|52=20181226-19:19:21.401|56=Acceptor|10=034|
8=FIX.4.4|9=62|35=0|34=117|49=Acceptor|52=20181226-19:19:21.404|56=Initiator|10=037|
8=FIX.4.4|9=62|35=0|34=118|49=Initiator|52=20181226-19:19:27.401|56=Acceptor|10=041|
8=FIX.4.4|9=62|35=0|34=118|49=Acceptor|52=20181226-19:19:27.404|56=Initiator|10=044|
8=FIX.4.4|9=62|35=0|34=119|49=Initiator|52=20181226-19:19:33.401|56=Acceptor|10=039|
8=FIX.4.4|9=62|35=0|34=119|49=Acceptor|52=20181226-19:19:33.404|56=Initiator|10=042|
8=FIX.4.4|9=62|35=0|34=120|49=Initiator|52=20181226-19:19:39.401|56=Acceptor|10=037|
8=FIX.4.4|9=62|35=0|34=120|49=Acceptor|52=20181226-19:19:39.404|56=Initiator|10=040|
8=FIX.4.4|9=62|35=0|34=121|49=Initiator|52=20181226-19:19:45.401|56=Acceptor|10=035|
8=FIX.4.4|9=62|35=0|34=121|49=Acceptor|52=20181226-19:19:45.403|56=Initiator|10=037|
8=FIX.4.4|9=62|35=0|34=122|49=Initiator|52=20181226-19:19:51.401|56=Acceptor|10=033|
8=FIX.4.4|9=62|35=0|34=122|49=Acceptor|52=20181226-19:19:51.402|56=Initiator|10=034|
8=FIX.4.4|9=62|35=0|34=123|49=Initiator|52=20181226-19:19:57.401|56=Acceptor|10=040|
8=FIX.4.4|9=62|35=0|34=123|49=Acceptor|52=20181226-19:19:57.404|56=Initiator|10=043|
8=FIX.4.4|9=62|35=0|34=124|49=Initiator|52=20181226-19:20:03.401|56=Acceptor|10=024|
8=FIX.4.4|9=62|35=0|34=124|49=Acceptor|52=20181226-19:20:03.404|56=Initiator|10=027|
8=FIX.4.4|9=62|35=0|34=125|49=Initiator|52=20181226-19:20:09.401|56=Acceptor|10=031|
8=FIX.4.4|9=62|35=0|34=125|49=Acceptor|52=20181226-19:20:09.404|56=Initiator|10=034|
8=FIX.4.4|9=62|35=0|34=126|49=Initiator|52=20181226-19:20:15.401|56=Acceptor|10=029|
8=FIX.4.4|9=62|35=0|34=126|49=Acceptor|52=20181226-19:20:15.404|56=Initiator|10=032|
8=FIX.4.4|9=62|35=0|34=127|49=Initiator|52=20181226-19:20:21.401|56=Acceptor|10=027|
8=FIX.4.4|9=62|35=0|34=127|49=Acceptor|52=20181226-19:20:21.404|56=Initiator|10=030|
8=FIX.4.4|9=62|35=0|34=128|49=Initiator|52=20181226-19:20:27.401|56=Acceptor|10=034|
8=FIX.4.4|9=62|35=0|34=128|49=Acceptor|52=20181226-19:20:27.404|56=Initiator|10=037|
8=FIX.4.4|9=62|35=0|34=129|49=Initiator|52=20181226-19:20:33.401|56=Acceptor|10=032|
8=FIX.4.4|9=62|35=0|34=129|49=Acceptor|52=20181226-19:20:33.404|56=Initiator|10=035|
8=FIX.4.4|9=62|35=0|34=130|49=Initiator|52=20181226-19:20:39.401|56=Acceptor|10=030|
8=FIX.4.4|9=62|35=0|34=130|49=Acceptor|52=20181226-19:20:39.403|56=Initiator|10=032|
8=FIX.4.4|9=62|35=0|34=131|49=Initiator|52=20181226-19:20:45.401|56=Acceptor|10=028|
8=FIX.4.4|9=62|35=0|34=131|49=Acceptor|52=20181226-19:20:45.404|56=Initiator|10=031|
8=FIX.4.4|9=62|35=0|34=132|49=Initiator|52=20181226-19:20:51.401|56=Acceptor|10=026|
8=FIX.4.4|9=62|35=0|34=132|49=Acceptor|52=20181226-19:20:51.404|56=Initiator|10=029|
8=FIX.4.4|9=62|35=0|34=133|49=Initiator|52=20181226-19:20:57.401|56=Acceptor|10=033|
8=FIX.4.4|9=62|35=0|34=133|49=Acceptor|52=20181226-19:20:57.403|56=Initiator|10=035|
8=FIX.4.4|9=62|35=0|34=134|49=Initiator|52=20181226-19:21:03.401|56=Acceptor|10=026|
8=FIX.4.4|9=62|35=0|34=134|49=Acceptor|52=20181226-19:21:03.404|56=Initiator|10=029|
8=FIX.4.4|9=62|35=0|34=135|49=Initiator|52=20181226-19:21:09.401|56=Acceptor|10=033|
8=FIX.4.4|9=62|35=0|34=135|49=Acceptor|52=20181226-19:21:09.404|56=Initiator|10=036|
8=FIX.4.4|9=62|35=0|34=136|49=Initiator|52=20181226-19:21:15.401|56=Acceptor|10=031|
8=FIX.4.4|9=62|35=0|34=136|49=Acceptor|52=20181226-19:21:15.404|56=Initiator|10=034|
8=FIX.4.4|9=62|35=0|34=137|49=Initiator|52=20181226-19:21:21.401|56=Acceptor|10=029|
8=FIX.4.4|9=62|35=0|34=137|49=Acceptor|52=20181226-19:21:21.404|56=Initiator|10=032|
8=FIX.4.4|9=62|35=0|34=138|49=Initiator|52=20181226-19:21:27.401|56=Acceptor|10=036|
8=FIX.4.4|9=62|35=0|34=138|49=Acceptor|52=20181226-19:21:27.404|56=Initiator|10=039|
8=FIX.4.4|9=62|35=0|34=139|49=Initiator|52=20181226-19:21:33.401|56=Acceptor|10=034|
8=FIX.4.4|9=62|35=0|34=139|49=Acceptor|52=20181226-19:21:33.404|56=Initiator|10=037|
8=FIX.4.4|9=62|35=0|34=140|49=Initiator|52=20181226-19:21:39.401|56=Acceptor|10=032|
8=FIX.4.4|9=62|35=0|34=140|49=Acceptor|52=20181226-19:21:39.404|56=Initiator|10=035|
8=FIX.4.4|9=62|35=0|34=141|49=Initiator|52=20181226-19:21:45.401|56=Acceptor|10=030|
8=FIX.4.4|9=62|35=0|34=141|49=Acceptor|52=20181226-19:21:45.404|56=Initiator|10=033|
8=FIX.4.4|9=62|35=0|34=142|49=Initiator|52=20181226-19:21:51.401|56=Acceptor|10=028|
8=FIX.4.4|9=62|35=0|34=142|49=Acceptor|52=20181226-19:21:51.403|56=Initiator|10=030|
8=FIX.4.4|9=62|35=0|34=143|49=Initiator|52=20181226-19:21:57.401|56=Acceptor|10=035|
8=FIX.4.4|9=62|35=0|34=143|49=Acceptor|52=20181226-19:21:57.404|56=Initiator|10=038|
8=FIX.4.4|9=62|35=0|34=144|49=Initiator|52=20181226-19:22:03.401|56=Acceptor|10=028|
8=FIX.4.4|9=62|35=0|34=144|49=Acceptor|52=20181226-19:22:03.404|56=Initiator|10=031|
8=FIX.4.4|9=62|35=0|34=145|49=Initiator|52=20181226-19:22:09.401|56=Acceptor|10=035|
8=FIX.4.4|9=62|35=0|34=145|49=Acceptor|52=20181226-19:22:09.403|56=Initiator|10=037|
8=FIX.4.4|9=62|35=0|34=146|49=Initiator|52=20181226-19:22:15.401|56=Acceptor|10=033|
8=FIX.4.4|9=62|35=0|34=146|49=Acceptor|52=20181226-19:22:15.403|56=Initiator|10=035|
8=FIX.4.4|9=62|35=0|34=147|49=Initiator|52=20181226-19:22:21.401|56=Acceptor|10=031|
8=FIX.4.4|9=62|35=0|34=147|49=Acceptor|52=20181226-19:22:21.403|56=Initiator|10=033|
8=FIX.4.4|9=62|35=0|34=148|49=Initiator|52=20181226-19:22:27.401|56=Acceptor|10=038|
8=FIX.4.4|9=62|35=0|34=148|49=Acceptor|52=20181226-19:22:27.403|56=Initiator|10=040|
8=FIX.4.4|9=62|35=0|34=149|49=Initiator|52=20181226-19:22:33.401|56=Acceptor|10=036|
8=FIX.4.4|9=62|35=0|34=149|49=Acceptor|52=20181226-19:22:33.403|56=Initiator|10=038|
8=FIX.4.4|9=62|35=0|34=150|49=Initiator|52=20181226-19:22:39.401|56=Acceptor|10=034|
8=FIX.4.4|9=62|35=0|34=150|49=Acceptor|52=20181226-19:22:39.403|56=Initiator|10=036|
8=FIX.4.4|9=62|35=0|34=151|49=Initiator|52=20181226-19:22:45.401|56=Acceptor|10=032|
8=FIX.4.4|9=62|35=0|34=151|49=Acceptor|52=20181226-19:22:45.404|56=Initiator|10=035|
8=FIX.4.4|9=62|35=0|34=152|49=Initiator|52=20181226-19:22:51.401|56=Acceptor|10=030|
8=FIX.4.4|9=62|35=0|34=152|49=Acceptor|52=20181226-19:22:51.404|56=Initiator|10=033|
8=FIX.4.4|9=62|35=0|34=153|49=Initiator|52=20181226-19:22:57.401|56=Acceptor|10=037|
8=FIX.4.4|9=62|35=0|34=153|49=Acceptor|52=20181226-19:22:57.404|56=Initiator|10=040|
8=FIX.4.4|9=62|35=0|34=154|49=Initiator|52=20181226-19:23:03.401|56=Acceptor|10=030|
8=FIX.4.4|9=62|35=0|34=154|49=Acceptor|52=20181226-19:23:03.404|56=Initiator|10=033|
8=FIX.4.4|9=62|35=0|34=155|49=Initiator|52=20181226-19:23:09.401|56=Acceptor|10=037|
8=FIX.4.4|9=62|35=0|34=155|49=Acceptor|52=20181226-19:23:09.404|56=Initiator|10=040|
8=FIX.4.4|9=62|35=0|34=156|49=Initiator|52=20181226-19:23:15.401|56=Acceptor|10=035|
8=FIX.4.4|9=62|35=0|34=156|49=Acceptor|52=20181226-19:23:15.404|56=Initiator|10=038|
8=FIX.4.4|9=62|35=0|34=157|49=Initiator|52=20181226-19:23:21.401|56=Acceptor|10=033|
8=FIX.4.4|9=62|35=0|34=157|49=Acceptor|52=20181226-19:23:21.404|56=Initiator|10=036|
8=FIX.4.4|9=62|35=0|34=158|49=Initiator|52=20181226-19:23:27.401|56=Acceptor|10=040|
8=FIX.4.4|9=62|35=0|34=158|49=Acceptor|52=20181226-19:23:27.405|56=Initiator|10=044|
8=FIX.4.4|9=62|35=0|34=159|49=Initiator|52=20181226-19:23:33.401|56=Acceptor|10=038|
8=FIX.4.4|9=62|35=0|34=159|49=Acceptor|52=20181226-19:23:33.404|56=Initiator|10=041|
8=FIX.4.4|9=62|35=0|34=160|49=Initiator|52=20181226-19:23:39.401|56=Acceptor|10=036|
8=FIX.4.4|9=62|35=0|34=160|49=Acceptor|52=20181226-19:23:39.404|56=Initiator|10=039|
8=FIX.4.4|9=62|35=0|34=161|49=Initiator|52=20181226-19:23:45.401|56=Acceptor|10=034|
8=FIX.4.4|9=62|35=0|34=161|49=Acceptor|52=20181226-19:23:45.404|56=Initiator|10=037|
8=FIX.4.4|9=62|35=0|34=162|49=Initiator|52=20181226-19:23:51.401|56=Acceptor|10=032|
8=FIX.4.4|9=62|35=0|34=162|49=Acceptor|52=20181226-19:23:51.404|56=Initiator|10=035|
8=FIX.4.4|9=62|35=0|34=163|49=Initiator|52=20181226-19:23:57.401|56=Acceptor|10=039|
8=FIX.4.4|9=62|35=0|34=163|49=Acceptor|52=20181226-19:23:57.404|56=Initiator|10=042|
8=FIX.4.4|9=62|35=0|34=164|49=Initiator|52=20181226-19:24:03.401|56=Acceptor|10=032|
8=FIX.4.4|9=62|35=0|34=164|49=Acceptor|52=20181226-19:24:03.404|56=Initiator|10=035|
8=FIX.4.4|9=62|35=0|34=165|49=Initiator|52=20181226-19:24:09.401|56=Acceptor|10=039|
8=FIX.4.4|9=62|35=0|34=165|49=Acceptor|52=20181226-19:24:09.405|56=Initiator|10=043|
8=FIX.4.4|9=62|35=0|34=166|49=Initiator|52=20181226-19:24:15.401|56=Acceptor|10=037|
8=FIX.4.4|9=62|35=0|34=166|49=Acceptor|52=20181226-19:24:15.404|56=Initiator|10=040|
8=FIX.4.4|9=62|35=0|34=167|49=Initiator|52=20181226-19:24:21.401|56=Acceptor|10=035|
8=FIX.4.4|9=62|35=0|34=167|49=Acceptor|52=20181226-19:24:21.404|56=Initiator|10=038|
8=FIX.4.4|9=62|35=0|34=168|49=Initiator|52=20181226-19:24:27.401|56=Acceptor|10=042|
8=FIX.4.4|9=62|35=0|34=168|49=Acceptor|52=20181226-19:24:27.404|56=Initiator|10=045|
8=FIX.4.4|9=62|35=0|34=169|49=Initiator|52=20181226-19:24:33.401|56=Acceptor|10=040|
8=FIX.4.4|9=62|35=0|34=169|49=Acceptor|52=20181226-19:24:33.403|56=Initiator|10=042|
8=FIX.4.4|9=62|35=0|34=170|49=Initiator|52=20181226-19:24:39.401|56=Acceptor|10=038|
8=FIX.4.4|9=62|35=0|34=170|49=Acceptor|52=20181226-19:24:39.404|56=Initiator|10=041|
8=FIX.4.4|9=62|35=0|34=171|49=Initiator|52=20181226-19:24:45.401|56=Acceptor|10=036|
8=FIX.4.4|9=62|35=0|34=171|49=Acceptor|52=20181226-19:24:45.403|56=Initiator|10=038|
8=FIX.4.4|9=62|35=0|34=172|49=Initiator|52=20181226-19:24:51.401|56=Acceptor|10=034|
8=FIX.4.4|9=62|35=0|34=172|49=Acceptor|52=20181226-19:24:51.403|56=Initiator|10=036|
8=FIX.4.4|9=62|35=0|34=173|49=Initiator|52=20181226-19:24:57.401|56=Acceptor|10=041|
8=FIX.4.4|9=62|35=0|34=173|49=Acceptor|52=20181226-19:24:57.403|56=Initiator|10=043|
8=FIX.4.4|9=62|35=0|34=174|49=Initiator|52=20181226-19:25:03.401|56=Acceptor|10=034|
8=FIX.4.4|9=62|35=0|34=174|49=Acceptor|52=20181226-19:25:03.404|56=Initiator|10=037|
8=FIX.4.4|9=62|35=0|34=175|49=Initiator|52=20181226-19:25:09.401|56=Acceptor|10=041|
8=FIX.4.4|9=62|35=0|34=175|49=Acceptor|52=20181226-19:25:09.404|56=Initiator|10=044|
8=FIX.4.4|9=62|35=0|34=176|49=Initiator|52=20181226-19:25:15.401|56=Acceptor|10=039|
8=FIX.4.4|9=62|35=0|34=176|49=Acceptor|52=20181226-19:25:15.404|56=Initiator|10=042|
8=FIX.4.4|9=62|35=0|34=177|49=Initiator|52=20181226-19:25:21.401|56=Acceptor|10=037|
8=FIX.4.4|9=62|35=0|34=177|49=Acceptor|52=20181226-19:25:21.404|56=Initiator|10=040|
8=FIX.4.4|9=62|35=0|34=178|49=Initiator|52=20181226-19:25:27.401|56=Acceptor|10=044|
8=FIX.4.4|9=62|35=0|34=178|49=Acceptor|52=20181226-19:25:27.404|56=Initiator|10=047|
8=FIX.4.4|9=62|35=0|34=179|49=Initiator|52=20181226-19:25:33.401|56=Acceptor|10=042|
8=FIX.4.4|9=62|35=0|34=179|49=Acceptor|52=20181226-19:25:33.404|56=Initiator|10=045|
8=FIX.4.4|9=62|35=0|34=180|49=Initiator|52=20181226-19:25:39.401|56=Acceptor|10=040|
8=FIX.4.4|9=62|35=0|34=180|49=Acceptor|52=20181226-19:25:39.404|56=Initiator|10=043|
8=FIX.4.4|9=62|35=0|34=181|49=Initiator|52=20181226-19:25:45.401|56=Acceptor|10=038|
8=FIX.4.4|9=62|35=0|34=181|49=Acceptor|52=20181226-19:25:45.403|56=Initiator|10=040|
8=FIX.4.4|9=62|35=0|34=182|49=Initiator|52=20181226-19:25:51.401|56=Acceptor|10=036|
8=FIX.4.4|9=62|35=0|34=182|49=Acceptor|52=20181226-19:25:51.404|56=Initiator|10=039|
8=FIX.4.4|9=62|35=0|34=183|49=Initiator|52=20181226-19:25:57.401|56=Acceptor|10=043|
8=FIX.4.4|9=62|35=0|34=183|49=Acceptor|52=20181226-19:25:57.404|56=Initiator|10=046|
8=FIX.4.4|9=62|35=0|34=184|49=Initiator|52=20181226-19:26:03.401|56=Acceptor|10=036|
8=FIX.4.4|9=62|35=0|34=184|49=Acceptor|52=20181226-19:26:03.404|56=Initiator|10=039|
8=FIX.4.4|9=62|35=0|34=185|49=Initiator|52=20181226-19:26:09.401|56=Acceptor|10=043|
8=FIX.4.4|9=62|35=0|34=185|49=Acceptor|52=20181226-19:26:09.404|56=Initiator|10=046|
8=FIX.4.4|9=62|35=0|34=186|49=Initiator|52=20181226-19:26:15.401|56=Acceptor|10=041|
8=FIX.4.4|9=62|35=0|34=186|49=Acceptor|52=20181226-19:26:15.403|56=Initiator|10=043|
8=FIX.4.4|9=62|35=0|34=187|49=Initiator|52=20181226-19:26:21.401|56=Acceptor|10=039|
8=FIX.4.4|9=62|35=0|34=187|49=Acceptor|52=20181226-19:26:21.403|56=Initiator|10=041|
8=FIX.4.4|9=62|35=0|34=188|49=Initiator|52=20181226-19:26:27.401|56=Acceptor|10=046|
8=FIX.4.4|9=62|35=0|34=188|49=Acceptor|52=20181226-19:26:27.403|56=Initiator|10=048|
8=FIX.4.4|9=62|35=0|34=189|49=Initiator|52=20181226-19:26:33.401|56=Acceptor|10=044|
8=FIX.4.4|9=62|35=0|34=189|49=Acceptor|52=20181226-19:26:33.402|56=Initiator|10=045|
8=FIX.4.4|9=62|35=0|34=190|49=Initiator|52=20181226-19:26:39.401|56=Acceptor|10=042|
8=FIX.4.4|9=62|35=0|34=190|49=Acceptor|52=20181226-19:26:39.403|56=Initiator|10=044|
8=FIX.4.4|9=62|35=0|34=191|49=Initiator|52=20181226-19:26:45.401|56=Acceptor|10=040|
8=FIX.4.4|9=62|35=0|34=191|49=Acceptor|52=20181226-19:26:45.404|56=Initiator|10=043|
8=FIX.4.4|9=62|35=0|34=192|49=Initiator|52=20181226-19:26:51.401|56=Acceptor|10=038|
8=FIX.4.4|9=62|35=0|34=192|49=Acceptor|52=20181226-19:26:51.403|56=Initiator|10=040|
8=FIX.4.4|9=62|35=0|34=193|49=Initiator|52=20181226-19:26:57.401|56=Acceptor|10=045|
8=FIX.4.4|9=62|35=0|34=193|49=Acceptor|52=20181226-19:26:57.404|56=Initiator|10=048|
8=FIX.4.4|9=62|35=0|34=194|49=Initiator|52=20181226-19:27:03.401|56=Acceptor|10=038|
8=FIX.4.4|9=62|35=0|34=194|49=Acceptor|52=20181226-19:27:03.403|56=Initiator|10=040|
8=FIX.4.4|9=62|35=0|34=195|49=Initiator|52=20181226-19:27:09.401|56=Acceptor|10=045|
8=FIX.4.4|9=62|35=0|34=195|49=Acceptor|52=20181226-19:27:09.404|56=Initiator|10=048|
8=FIX.4.4|9=62|35=0|34=196|49=Initiator|52=20181226-19:27:15.401|56=Acceptor|10=043|
8=FIX.4.4|9=62|35=0|34=196|49=Acceptor|52=20181226-19:27:15.403|56=Initiator|10=045|
8=FIX.4.4|9=62|35=0|34=197|49=Initiator|52=20181226-19:27:21.401|56=Acceptor|10=041|
8=FIX.4.4|9=62|35=0|34=197|49=Acceptor|52=20181226-19:27:21.404|56=Initiator|10=044|
8=FIX.4.4|9=62|35=0|34=198|49=Initiator|52=20181226-19:27:27.401|56=Acceptor|10=048|
8=FIX.4.4|9=62|35=0|34=198|49=Acceptor|52=20181226-19:27:27.403|56=Initiator|10=050|
8=FIX.4.4|9=62|35=0|34=199|49=Initiator|52=20181226-19:27:33.401|56=Acceptor|10=046|
8=FIX.4.4|9=62|35=0|34=199|49=Acceptor|52=20181226-19:27:33.403|56=Initiator|10=048|
8=FIX.4.4|9=62|35=0|34=200|49=Initiator|52=20181226-19:27:39.401|56=Acceptor|10=035|
8=FIX.4.4|9=62|35=0|34=200|49=Acceptor|52=20181226-19:27:39.403|56=Initiator|10=037|
8=FIX.4.4|9=62|35=0|34=201|49=Initiator|52=20181226-19:27:45.401|56=Acceptor|10=033|
8=FIX.4.4|9=62|35=0|34=201|49=Acceptor|52=20181226-19:27:45.404|56=Initiator|10=036|
8=FIX.4.4|9=62|35=0|34=202|49=Initiator|52=20181226-19:27:51.401|56=Acceptor|10=031|
8=FIX.4.4|9=62|35=0|34=202|49=Acceptor|52=20181226-19:27:51.405|56=Initiator|10=035|
8=FIX.4.4|9=62|35=0|34=203|49=Initiator|52=20181226-19:27:57.401|56=Acceptor|10=038|
8=FIX.4.4|9=62|35=0|34=203|49=Acceptor|52=20181226-19:27:57.403|56=Initiator|10=040|
8=FIX.4.4|9=62|35=0|34=204|49=Initiator|52=20181226-19:28:03.401|56=Acceptor|10=031|
8=FIX.4.4|9=62|35=0|34=204|49=Acceptor|52=20181226-19:28:03.403|56=Initiator|10=033|
8=FIX.4.4|9=62|35=0|34=205|49=Initiator|52=20181226-19:28:09.401|56=Acceptor|10=038|
8=FIX.4.4|9=62|35=0|34=205|49=Acceptor|52=20181226-19:28:09.403|56=Initiator|10=040|
8=FIX.4.4|9=62|35=0|34=206|49=Initiator|52=20181226-19:28:15.401|56=Acceptor|10=036|
8=FIX.4.4|9=62|35=0|34=206|49=Acceptor|52=20181226-19:28:15.403|56=Initiator|10=038|
8=FIX.4.4|9=62|35=0|34=207|49=Initiator|52=20181226-19:28:21.401|56=Acceptor|10=034|
8=FIX.4.4|9=62|35=0|34=207|49=Acceptor|52=20181226-19:28:21.403|56=Initiator|10=036|
8=FIX.4.4|9=62|35=0|34=208|49=Initiator|52=20181226-19:28:27.401|56=Acceptor|10=041|
8=FIX.4.4|9=62|35=0|34=208|49=Acceptor|52=20181226-19:28:27.403|56=Initiator|10=043|
8=FIX.4.4|9=62|35=0|34=209|49=Initiator|52=20181226-19:28:33.401|56=Acceptor|10=039|
8=FIX.4.4|9=62|35=0|34=209|49=Acceptor|52=20181226-19:28:33.404|56=Initiator|10=042|
8=FIX.4.4|9=62|35=0|34=210|49=Initiator|52=20181226-19:28:39.401|56=Acceptor|10=037|
8=FIX.4.4|9=62|35=0|34=210|49=Acceptor|52=20181226-19:28:39.403|56=Initiator|10=039|
8=FIX.4.4|9=62|35=0|34=211|49=Initiator|52=20181226-19:28:45.401|56=Acceptor|10=035|
8=FIX.4.4|9=62|35=0|34=211|49=Acceptor|52=20181226-19:28:45.404|56=Initiator|10=038|
8=FIX.4.4|9=62|35=0|34=212|49=Initiator|52=20181226-19:28:51.401|56=Acceptor|10=033|
8=FIX.4.4|9=62|35=0|34=212|49=Acceptor|52=20181226-19:28:51.403|56=Initiator|10=035|
8=FIX.4.4|9=62|35=0|34=213|49=Initiator|52=20181226-19:28:57.401|56=Acceptor|10=040|
8=FIX.4.4|9=62|35=0|34=213|49=Acceptor|52=20181226-19:28:57.403|56=Initiator|10=042|
8=FIX.4.4|9=62|35=0|34=214|49=Initiator|52=20181226-19:29:03.401|56=Acceptor|10=033|
8=FIX.4.4|9=62|35=0|34=214|49=Acceptor|52=20181226-19:29:03.404|56=Initiator|10=036|
8=FIX.4.4|9=62|35=0|34=215|49=Initiator|52=20181226-19:29:09.401|56=Acceptor|10=040|
8=FIX.4.4|9=62|35=0|34=215|49=Acceptor|52=20181226-19:29:09.403|56=Initiator|10=042|
8=FIX.4.4|9=62|35=0|34=216|49=Initiator|52=20181226-19:29:15.401|56=Acceptor|10=038|
8=FIX.4.4|9=62|35=0|34=216|49=Acceptor|52=20181226-19:29:15.403|56=Initiator|10=040|
8=FIX.4.4|9=62|35=0|34=217|49=Initiator|52=20181226-19:29:21.401|56=Acceptor|10=036|
8=FIX.4.4|9=62|35=0|34=217|49=Acceptor|52=20181226-19:29:21.403|56=Initiator|10=038|
8=FIX.4.4|9=62|35=0|34=218|49=Initiator|52=20181226-19:29:27.401|56=Acceptor|10=043|
8=FIX.4.4|9=62|35=0|34=218|49=Acceptor|52=20181226-19:29:27.403|56=Initiator|10=045|
8=FIX.4.4|9=62|35=0|34=219|49=Initiator|52=20181226-19:29:33.401|56=Acceptor|10=041|
8=FIX.4.4|9=62|35=0|34=219|49=Acceptor|52=20181226-19:29:33.403|56=Initiator|10=043|
8=FIX.4.4|9=62|35=0|34=220|49=Initiator|52=20181226-19:29:39.401|56=Acceptor|10=039|
8=FIX.4.4|9=62|35=0|34=220|49=Acceptor|52=20181226-19:29:39.403|56=Initiator|10=041|
8=FIX.4.4|9=62|35=0|34=221|49=Initiator|52=20181226-19:29:45.401|56=Acceptor|10=037|
8=FIX.4.4|9=62|35=0|34=221|49=Acceptor|52=20181226-19:29:45.403|56=Initiator|10=039|
8=FIX.4.4|9=62|35=0|34=222|49=Initiator|52=20181226-19:29:51.401|56=Acceptor|10=035|
8=FIX.4.4|9=62|35=0|34=222|49=Acceptor|52=20181226-19:29:51.403|56=Initiator|10=037|
8=FIX.4.4|9=62|35=0|34=223|49=Initiator|52=20181226-19:29:57.401|56=Acceptor|10=042|
8=FIX.4.4|9=62|35=0|34=223|49=Acceptor|52=20181226-19:29:57.411|56=Initiator|10=043|
8=FIX.4.4|9=62|35=0|34=224|49=Initiator|52=20181226-19:30:03.401|56=Acceptor|10=026|
8=FIX.4.4|9=62|35=0|34=224|49=Acceptor|52=20181226-19:30:03.403|56=Initiator|10=028|
8=FIX.4.4|9=62|35=0|34=225|49=Initiator|52=20181226-19:30:09.401|56=Acceptor|10=033|
8=FIX.4.4|9=62|35=0|34=225|49=Acceptor|52=20181226-19:30:09.403|56=Initiator|10=035|
8=FIX.4.4|9=62|35=0|34=226|49=Initiator|52=20181226-19:30:15.403|56=Acceptor|10=033|
8=FIX.4.4|9=62|35=0|34=226|49=Acceptor|52=20181226-19:30:15.405|56=Initiator|10=035|
8=FIX.4.4|9=62|35=0|34=227|49=Initiator|52=20181226-19:30:21.401|56=Acceptor|10=029|
8=FIX.4.4|9=62|35=0|34=227|49=Acceptor|52=20181226-19:30:21.403|56=Initiator|10=031|
8=FIX.4.4|9=62|35=0|34=228|49=Initiator|52=20181226-19:30:27.401|56=Acceptor|10=036|
8=FIX.4.4|9=62|35=0|34=228|49=Acceptor|52=20181226-19:30:27.404|56=Initiator|10=039|
8=FIX.4.4|9=62|35=0|34=229|49=Initiator|52=20181226-19:30:33.401|56=Acceptor|10=034|
8=FIX.4.4|9=62|35=0|34=229|49=Acceptor|52=20181226-19:30:33.402|56=Initiator|10=035|
8=FIX.4.4|9=62|35=0|34=230|49=Initiator|52=20181226-19:30:39.401|56=Acceptor|10=032|
8=FIX.4.4|9=62|35=0|34=230|49=Acceptor|52=20181226-19:30:39.402|56=Initiator|10=033|
8=FIX.4.4|9=62|35=0|34=231|49=Initiator|52=20181226-19:30:45.401|56=Acceptor|10=030|
8=FIX.4.4|9=62|35=0|34=231|49=Acceptor|52=20181226-19:30:45.404|56=Initiator|10=033|
8=FIX.4.4|9=62|35=0|34=232|49=Initiator|52=20181226-19:30:51.401|56=Acceptor|10=028|
8=FIX.4.4|9=62|35=0|34=232|49=Acceptor|52=20181226-19:30:51.403|56=Initiator|10=030|
8=FIX.4.4|9=62|35=0|34=233|49=Initiator|52=20181226-19:30:57.401|56=Acceptor|10=035|
8=FIX.4.4|9=62|35=0|34=233|49=Acceptor|52=20181226-19:30:57.403|56=Initiator|10=037|
8=FIX.4.4|9=62|35=0|34=234|49=Initiator|52=20181226-19:31:03.401|56=Acceptor|10=028|
8=FIX.4.4|9=62|35=0|34=234|49=Acceptor|52=20181226-19:31:03.403|56=Initiator|10=030|
8=FIX.4.4|9=62|35=0|34=235|49=Initiator|52=20181226-19:31:09.401|56=Acceptor|10=035|
8=FIX.4.4|9=62|35=0|34=235|49=Acceptor|52=20181226-19:31:09.404|56=Initiator|10=038|
8=FIX.4.4|9=62|35=0|34=236|49=Initiator|52=20181226-19:31:15.401|56=Acceptor|10=033|
8=FIX.4.4|9=62|35=0|34=236|49=Acceptor|52=20181226-19:31:15.404|56=Initiator|10=036|
8=FIX.4.4|9=62|35=0|34=237|49=Initiator|52=20181226-19:31:21.401|56=Acceptor|10=031|
8=FIX.4.4|9=62|35=0|34=237|49=Acceptor|52=20181226-19:31:21.403|56=Initiator|10=033|
8=FIX.4.4|9=62|35=0|34=238|49=Initiator|52=20181226-19:31:27.401|56=Acceptor|10=038|
8=FIX.4.4|9=62|35=0|34=238|49=Acceptor|52=20181226-19:31:27.403|56=Initiator|10=040|
8=FIX.4.4|9=62|35=0|34=239|49=Initiator|52=20181226-19:31:33.401|56=Acceptor|10=036|
8=FIX.4.4|9=62|35=0|34=239|49=Acceptor|52=20181226-19:31:33.403|56=Initiator|10=038|
8=FIX.4.4|9=62|35=0|34=240|49=Initiator|52=20181226-19:31:39.401|56=Acceptor|10=034|
8=FIX.4.4|9=62|35=0|34=240|49=Acceptor|52=20181226-19:31:39.403|56=Initiator|10=036|
8=FIX.4.4|9=62|35=0|34=241|49=Initiator|52=20181226-19:31:45.401|56=Acceptor|10=032|
8=FIX.4.4|9=62|35=0|34=241|49=Acceptor|52=20181226-19:31:45.404|56=Initiator|10=035|
8=FIX.4.4|9=62|35=0|34=242|49=Initiator|52=20181226-19:31:51.401|56=Acceptor|10=030|
8=FIX.4.4|9=62|35=0|34=242|49=Acceptor|52=20181226-19:31:51.404|56=Initiator|10=033|
8=FIX.4.4|9=62|35=0|34=243|49=Initiator|52=20181226-19:31:57.401|56=Acceptor|10=037|
8=FIX.4.4|9=62|35=0|34=243|49=Acceptor|52=20181226-19:31:57.404|56=Initiator|10=040|
8=FIX.4.4|9=62|35=0|34=244|49=Initiator|52=20181226-19:32:03.401|56=Acceptor|10=030|
8=FIX.4.4|9=62|35=0|34=244|49=Acceptor|52=20181226-19:32:03.404|56=Initiator|10=033|
8=FIX.4.4|9=62|35=0|34=245|49=Initiator|52=20181226-19:32:09.401|56=Acceptor|10=037|
8=FIX.4.4|9=62|35=0|34=245|49=Acceptor|52=20181226-19:32:09.404|56=Initiator|10=040|
8=FIX.4.4|9=62|35=0|34=246|49=Initiator|52=20181226-19:32:15.401|56=Acceptor|10=035|
8=FIX.4.4|9=62|35=0|34=246|49=Acceptor|52=20181226-19:32:15.403|56=Initiator|10=037|
8=FIX.4.4|9=62|35=0|34=247|49=Initiator|52=20181226-19:32:21.401|56=Acceptor|10=033|
8=FIX.4.4|9=62|35=0|34=247|49=Acceptor|52=20181226-19:32:21.403|56=Initiator|10=035|
8=FIX.4.4|9=62|35=0|34=248|49=Initiator|52=20181226-19:32:27.401|56=Acceptor|10=040|
8=FIX.4.4|9=62|35=0|34=248|49=Acceptor|52=20181226-19:32:27.403|56=Initiator|10=042|
8=FIX.4.4|9=62|35=0|34=249|49=Initiator|52=20181226-19:32:33.401|56=Acceptor|10=038|
8=FIX.4.4|9=62|35=0|34=249|49=Acceptor|52=20181226-19:32:33.404|56=Initiator|10=041|
8=FIX.4.4|9=62|35=0|34=250|49=Initiator|52=20181226-19:32:39.401|56=Acceptor|10=036|
8=FIX.4.4|9=62|35=0|34=250|49=Acceptor|52=20181226-19:32:39.404|56=Initiator|10=039|
8=FIX.4.4|9=62|35=0|34=251|49=Initiator|52=20181226-19:32:45.401|56=Acceptor|10=034|
8=FIX.4.4|9=62|35=0|34=251|49=Acceptor|52=20181226-19:32:45.403|56=Initiator|10=036|
8=FIX.4.4|9=62|35=0|34=252|49=Initiator|52=20181226-19:32:51.401|56=Acceptor|10=032|
8=FIX.4.4|9=62|35=0|34=252|49=Acceptor|52=20181226-19:32:51.403|56=Initiator|10=034|
8=FIX.4.4|9=62|35=0|34=253|49=Initiator|52=20181226-19:32:57.401|56=Acceptor|10=039|
8=FIX.4.4|9=62|35=0|34=253|49=Acceptor|52=20181226-19:32:57.403|56=Initiator|10=041|
8=FIX.4.4|9=62|35=0|34=254|49=Initiator|52=20181226-19:33:03.401|56=Acceptor|10=032|
8=FIX.4.4|9=62|35=0|34=254|49=Acceptor|52=20181226-19:33:03.403|56=Initiator|10=034|
8=FIX.4.4|9=62|35=0|34=255|49=Initiator|52=20181226-19:33:09.401|56=Acceptor|10=039|
8=FIX.4.4|9=62|35=0|34=255|49=Acceptor|52=20181226-19:33:09.403|56=Initiator|10=041|
8=FIX.4.4|9=62|35=0|34=256|49=Initiator|52=20181226-19:33:15.401|56=Acceptor|10=037|
8=FIX.4.4|9=62|35=0|34=256|49=Acceptor|52=20181226-19:33:15.404|56=Initiator|10=040|
8=FIX.4.4|9=62|35=0|34=257|49=Initiator|52=20181226-19:33:21.401|56=Acceptor|10=035|
8=FIX.4.4|9=62|35=0|34=257|49=Acceptor|52=20181226-19:33:21.403|56=Initiator|10=037|
8=FIX.4.4|9=62|35=0|34=258|49=Initiator|52=20181226-19:33:27.401|56=Acceptor|10=042|
8=FIX.4.4|9=62|35=0|34=258|49=Acceptor|52=20181226-19:33:27.403|56=Initiator|10=044|
8=FIX.4.4|9=62|35=0|34=259|49=Initiator|52=20181226-19:33:33.401|56=Acceptor|10=040|
8=FIX.4.4|9=62|35=0|34=259|49=Acceptor|52=20181226-19:33:33.404|56=Initiator|10=043|
8=FIX.4.4|9=62|35=0|34=260|49=Initiator|52=20181226-19:33:39.401|56=Acceptor|10=038|
8=FIX.4.4|9=62|35=0|34=260|49=Acceptor|52=20181226-19:33:39.403|56=Initiator|10=040|
8=FIX.4.4|9=62|35=0|34=261|49=Initiator|52=20181226-19:33:45.401|56=Acceptor|10=036|
8=FIX.4.4|9=62|35=0|34=261|49=Acceptor|52=20181226-19:33:45.403|56=Initiator|10=038|
8=FIX.4.4|9=62|35=0|34=262|49=Initiator|52=20181226-19:33:51.401|56=Acceptor|10=034|
8=FIX.4.4|9=62|35=0|34=262|49=Acceptor|52=20181226-19:33:51.404|56=Initiator|10=037|
8=FIX.4.4|9=62|35=0|34=263|49=Initiator|52=20181226-19:33:57.401|56=Acceptor|10=041|
8=FIX.4.4|9=62|35=0|34=263|49=Acceptor|52=20181226-19:33:57.403|56=Initiator|10=043|
8=FIX.4.4|9=62|35=0|34=264|49=Initiator|52=20181226-19:34:03.401|56=Acceptor|10=034|
8=FIX.4.4|9=62|35=0|34=264|49=Acceptor|52=20181226-19:34:03.403|56=Initiator|10=036|
8=FIX.4.4|9=62|35=0|34=265|49=Initiator|52=20181226-19:34:09.401|56=Acceptor|10=041|
8=FIX.4.4|9=62|35=0|34=265|49=Acceptor|52=20181226-19:34:09.403|56=Initiator|10=043|
8=FIX.4.4|9=62|35=0|34=266|49=Initiator|52=20181226-19:34:15.401|56=Acceptor|10=039|
8=FIX.4.4|9=62|35=0|34=266|49=Acceptor|52=20181226-19:34:15.403|56=Initiator|10=041|
8=FIX.4.4|9=62|35=0|34=267|49=Initiator|52=20181226-19:34:21.401|56=Acceptor|10=037|
8=FIX.4.4|9=62|35=0|34=267|49=Acceptor|52=20181226-19:34:21.403|56=Initiator|10=039|
8=FIX.4.4|9=62|35=0|34=268|49=Initiator|52=20181226-19:34:27.401|56=Acceptor|10=044|
8=FIX.4.4|9=62|35=0|34=268|49=Acceptor|52=20181226-19:34:27.403|56=Initiator|10=046|
8=FIX.4.4|9=62|35=0|34=269|49=Initiator|52=20181226-19:34:33.401|56=Acceptor|10=042|
8=FIX.4.4|9=62|35=0|34=269|49=Acceptor|52=20181226-19:34:33.402|56=Initiator|10=043|
8=FIX.4.4|9=62|35=0|34=270|49=Initiator|52=20181226-19:34:39.401|56=Acceptor|10=040|
8=FIX.4.4|9=62|35=0|34=270|49=Acceptor|52=20181226-19:34:39.404|56=Initiator|10=043|
8=FIX.4.4|9=62|35=0|34=271|49=Initiator|52=20181226-19:34:45.401|56=Acceptor|10=038|
8=FIX.4.4|9=62|35=0|34=271|49=Acceptor|52=20181226-19:34:45.404|56=Initiator|10=041|
8=FIX.4.4|9=62|35=0|34=272|49=Initiator|52=20181226-19:34:51.401|56=Acceptor|10=036|
8=FIX.4.4|9=62|35=0|34=272|49=Acceptor|52=20181226-19:34:51.403|56=Initiator|10=038|
8=FIX.4.4|9=62|35=0|34=273|49=Initiator|52=20181226-19:34:57.401|56=Acceptor|10=043|
8=FIX.4.4|9=62|35=0|34=273|49=Acceptor|52=20181226-19:34:57.403|56=Initiator|10=045|
8=FIX.4.4|9=62|35=0|34=274|49=Initiator|52=20181226-19:35:03.401|56=Acceptor|10=036|
8=FIX.4.4|9=62|35=0|34=274|49=Acceptor|52=20181226-19:35:03.404|56=Initiator|10=039|
8=FIX.4.4|9=62|35=0|34=275|49=Initiator|52=20181226-19:35:09.401|56=Acceptor|10=043|
8=FIX.4.4|9=62|35=0|34=275|49=Acceptor|52=20181226-19:35:09.403|56=Initiator|10=045|
8=FIX.4.4|9=62|35=0|34=276|49=Initiator|52=20181226-19:35:15.401|56=Acceptor|10=041|
8=FIX.4.4|9=62|35=0|34=276|49=Acceptor|52=20181226-19:35:15.403|56=Initiator|10=043|
8=FIX.4.4|9=62|35=0|34=277|49=Initiator|52=20181226-19:35:21.401|56=Acceptor|10=039|
8=FIX.4.4|9=62|35=0|34=277|49=Acceptor|52=20181226-19:35:21.403|56=Initiator|10=041|
8=FIX.4.4|9=62|35=0|34=278|49=Initiator|52=20181226-19:35:27.401|56=Acceptor|10=046|
8=FIX.4.4|9=62|35=0|34=278|49=Acceptor|52=20181226-19:35:27.403|56=Initiator|10=048|
8=FIX.4.4|9=62|35=0|34=279|49=Initiator|52=20181226-19:35:33.401|56=Acceptor|10=044|
8=FIX.4.4|9=62|35=0|34=279|49=Acceptor|52=20181226-19:35:33.403|56=Initiator|10=046|
8=FIX.4.4|9=62|35=0|34=280|49=Initiator|52=20181226-19:35:39.401|56=Acceptor|10=042|
8=FIX.4.4|9=62|35=0|34=280|49=Acceptor|52=20181226-19:35:39.403|56=Initiator|10=044|
8=FIX.4.4|9=62|35=0|34=281|49=Initiator|52=20181226-19:35:45.401|56=Acceptor|10=040|
8=FIX.4.4|9=62|35=0|34=281|49=Acceptor|52=20181226-19:35:45.404|56=Initiator|10=043|
8=FIX.4.4|9=62|35=0|34=282|49=Initiator|52=20181226-19:35:51.401|56=Acceptor|10=038|
8=FIX.4.4|9=62|35=0|34=282|49=Acceptor|52=20181226-19:35:51.404|56=Initiator|10=041|
8=FIX.4.4|9=62|35=0|34=283|49=Initiator|52=20181226-19:35:57.401|56=Acceptor|10=045|
8=FIX.4.4|9=62|35=0|34=283|49=Acceptor|52=20181226-19:35:57.403|56=Initiator|10=047|
8=FIX.4.4|9=62|35=0|34=284|49=Initiator|52=20181226-19:36:03.401|56=Acceptor|10=038|
8=FIX.4.4|9=62|35=0|34=284|49=Acceptor|52=20181226-19:36:03.403|56=Initiator|10=040|
8=FIX.4.4|9=62|35=0|34=285|49=Initiator|52=20181226-19:36:09.401|56=Acceptor|10=045|
8=FIX.4.4|9=62|35=0|34=285|49=Acceptor|52=20181226-19:36:09.403|56=Initiator|10=047|
8=FIX.4.4|9=62|35=0|34=286|49=Initiator|52=20181226-19:36:15.401|56=Acceptor|10=043|
8=FIX.4.4|9=62|35=0|34=286|49=Acceptor|52=20181226-19:36:15.403|56=Initiator|10=045|
8=FIX.4.4|9=62|35=0|34=287|49=Initiator|52=20181226-19:36:21.401|56=Acceptor|10=041|
8=FIX.4.4|9=62|35=0|34=287|49=Acceptor|52=20181226-19:36:21.404|56=Initiator|10=044|
8=FIX.4.4|9=62|35=0|34=288|49=Initiator|52=20181226-19:36:27.401|56=Acceptor|10=048|
8=FIX.4.4|9=62|35=0|34=288|49=Acceptor|52=20181226-19:36:27.404|56=Initiator|10=051|
8=FIX.4.4|9=62|35=0|34=289|49=Initiator|52=20181226-19:36:33.401|56=Acceptor|10=046|
8=FIX.4.4|9=62|35=0|34=289|49=Acceptor|52=20181226-19:36:33.403|56=Initiator|10=048|
8=FIX.4.4|9=62|35=0|34=290|49=Initiator|52=20181226-19:36:39.401|56=Acceptor|10=044|
8=FIX.4.4|9=62|35=0|34=290|49=Acceptor|52=20181226-19:36:39.404|56=Initiator|10=047|
8=FIX.4.4|9=62|35=0|34=291|49=Initiator|52=20181226-19:36:45.401|56=Acceptor|10=042|
8=FIX.4.4|9=62|35=0|34=291|49=Acceptor|52=20181226-19:36:45.404|56=Initiator|10=045|
8=FIX.4.4|9=62|35=0|34=292|49=Initiator|52=20181226-19:36:51.401|56=Acceptor|10=040|
8=FIX.4.4|9=62|35=0|34=292|49=Acceptor|52=20181226-19:36:51.403|56=Initiator|10=042|
8=FIX.4.4|9=62|35=0|34=293|49=Initiator|52=20181226-19:36:57.401|56=Acceptor|10=047|
8=FIX.4.4|9=62|35=0|34=293|49=Acceptor|52=20181226-19:36:57.403|56=Initiator|10=049|
8=FIX.4.4|9=62|35=0|34=294|49=Initiator|52=20181226-19:37:03.401|56=Acceptor|10=040|
8=FIX.4.4|9=62|35=0|34=294|49=Acceptor|52=20181226-19:37:03.403|56=Initiator|10=042|
8=FIX.4.4|9=62|35=0|34=295|49=Initiator|52=20181226-19:37:09.401|56=Acceptor|10=047|
8=FIX.4.4|9=62|35=0|34=295|49=Acceptor|52=20181226-19:37:09.403|56=Initiator|10=049|
8=FIX.4.4|9=62|35=0|34=296|49=Initiator|52=20181226-19:37:15.401|56=Acceptor|10=045|
8=FIX.4.4|9=62|35=0|34=296|49=Acceptor|52=20181226-19:37:15.403|56=Initiator|10=047|
8=FIX.4.4|9=62|35=0|34=297|49=Initiator|52=20181226-19:37:21.401|56=Acceptor|10=043|
8=FIX.4.4|9=62|35=0|34=297|49=Acceptor|52=20181226-19:37:21.403|56=Initiator|10=045|
8=FIX.4.4|9=62|35=0|34=298|49=Initiator|52=20181226-19:37:27.401|56=Acceptor|10=050|
8=FIX.4.4|9=62|35=0|34=298|49=Acceptor|52=20181226-19:37:27.403|56=Initiator|10=052|
8=FIX.4.4|9=62|35=0|34=299|49=Initiator|52=20181226-19:37:33.401|56=Acceptor|10=048|
8=FIX.4.4|9=62|35=0|34=299|49=Acceptor|52=20181226-19:37:33.403|56=Initiator|10=050|
8=FIX.4.4|9=62|35=0|34=300|49=Initiator|52=20181226-19:37:39.401|56=Acceptor|10=037|
8=FIX.4.4|9=62|35=0|34=300|49=Acceptor|52=20181226-19:37:39.403|56=Initiator|10=039|
8=FIX.4.4|9=62|35=0|34=301|49=Initiator|52=20181226-19:37:45.401|56=Acceptor|10=035|
8=FIX.4.4|9=62|35=0|34=301|49=Acceptor|52=20181226-19:37:45.403|56=Initiator|10=037|
8=FIX.4.4|9=62|35=0|34=302|49=Initiator|52=20181226-19:37:51.401|56=Acceptor|10=033|
8=FIX.4.4|9=62|35=0|34=302|49=Acceptor|52=20181226-19:37:51.404|56=Initiator|10=036|
8=FIX.4.4|9=62|35=0|34=303|49=Initiator|52=20181226-19:37:57.401|56=Acceptor|10=040|
8=FIX.4.4|9=62|35=0|34=303|49=Acceptor|52=20181226-19:37:57.404|56=Initiator|10=043|
8=FIX.4.4|9=62|35=0|34=304|49=Initiator|52=20181226-19:38:03.401|56=Acceptor|10=033|
8=FIX.4.4|9=62|35=0|34=304|49=Acceptor|52=20181226-19:38:03.403|56=Initiator|10=035|
8=FIX.4.4|9=62|35=0|34=305|49=Initiator|52=20181226-19:38:09.401|56=Acceptor|10=040|
8=FIX.4.4|9=62|35=0|34=305|49=Acceptor|52=20181226-19:38:09.403|56=Initiator|10=042|
8=FIX.4.4|9=62|35=0|34=306|49=Initiator|52=20181226-19:38:15.401|56=Acceptor|10=038|
8=FIX.4.4|9=62|35=0|34=306|49=Acceptor|52=20181226-19:38:15.403|56=Initiator|10=040|
8=FIX.4.4|9=62|35=0|34=307|49=Initiator|52=20181226-19:38:21.401|56=Acceptor|10=036|
8=FIX.4.4|9=62|35=0|34=307|49=Acceptor|52=20181226-19:38:21.403|56=Initiator|10=038|
8=FIX.4.4|9=62|35=0|34=308|49=Initiator|52=20181226-19:38:27.401|56=Acceptor|10=043|
8=FIX.4.4|9=62|35=0|34=308|49=Acceptor|52=20181226-19:38:27.404|56=Initiator|10=046|
8=FIX.4.4|9=62|35=0|34=309|49=Initiator|52=20181226-19:38:33.401|56=Acceptor|10=041|
8=FIX.4.4|9=62|35=0|34=309|49=Acceptor|52=20181226-19:38:33.404|56=Initiator|10=044|
8=FIX.4.4|9=62|35=0|34=310|49=Initiator|52=20181226-19:38:39.401|56=Acceptor|10=039|
8=FIX.4.4|9=62|35=0|34=310|49=Acceptor|52=20181226-19:38:39.403|56=Initiator|10=041|
8=FIX.4.4|9=62|35=0|34=311|49=Initiator|52=20181226-19:38:45.401|56=Acceptor|10=037|
8=FIX.4.4|9=62|35=0|34=311|49=Acceptor|52=20181226-19:38:45.404|56=Initiator|10=040|
8=FIX.4.4|9=62|35=0|34=312|49=Initiator|52=20181226-19:38:51.401|56=Acceptor|10=035|
8=FIX.4.4|9=62|35=0|34=312|49=Acceptor|52=20181226-19:38:51.403|56=Initiator|10=037|
8=FIX.4.4|9=62|35=0|34=313|49=Initiator|52=20181226-19:38:57.401|56=Acceptor|10=042|
8=FIX.4.4|9=62|35=0|34=313|49=Acceptor|52=20181226-19:38:57.404|56=Initiator|10=045|
8=FIX.4.4|9=62|35=0|34=314|49=Initiator|52=20181226-19:39:03.401|56=Acceptor|10=035|
8=FIX.4.4|9=62|35=0|34=314|49=Acceptor|52=20181226-19:39:03.403|56=Initiator|10=037|
8=FIX.4.4|9=62|35=0|34=315|49=Initiator|52=20181226-19:39:09.401|56=Acceptor|10=042|
8=FIX.4.4|9=62|35=0|34=315|49=Acceptor|52=20181226-19:39:09.403|56=Initiator|10=044|
8=FIX.4.4|9=62|35=0|34=316|49=Initiator|52=20181226-19:39:15.401|56=Acceptor|10=040|
8=FIX.4.4|9=62|35=0|34=316|49=Acceptor|52=20181226-19:39:15.403|56=Initiator|10=042|
8=FIX.4.4|9=62|35=0|34=317|49=Initiator|52=20181226-19:39:21.401|56=Acceptor|10=038|
8=FIX.4.4|9=62|35=0|34=317|49=Acceptor|52=20181226-19:39:21.404|56=Initiator|10=041|
8=FIX.4.4|9=62|35=0|34=318|49=Initiator|52=20181226-19:39:27.401|56=Acceptor|10=045|
8=FIX.4.4|9=62|35=0|34=318|49=Acceptor|52=20181226-19:39:27.403|56=Initiator|10=047|
8=FIX.4.4|9=62|35=0|34=319|49=Initiator|52=20181226-19:39:33.401|56=Acceptor|10=043|
8=FIX.4.4|9=62|35=0|34=319|49=Acceptor|52=20181226-19:39:33.403|56=Initiator|10=045|
8=FIX.4.4|9=62|35=0|34=320|49=Initiator|52=20181226-19:39:39.401|56=Acceptor|10=041|
8=FIX.4.4|9=62|35=0|34=320|49=Acceptor|52=20181226-19:39:39.403|56=Initiator|10=043|
8=FIX.4.4|9=62|35=0|34=321|49=Initiator|52=20181226-19:39:45.401|56=Acceptor|10=039|
8=FIX.4.4|9=62|35=0|34=321|49=Acceptor|52=20181226-19:39:45.403|56=Initiator|10=041|
8=FIX.4.4|9=62|35=0|34=322|49=Initiator|52=20181226-19:39:51.401|56=Acceptor|10=037|
8=FIX.4.4|9=62|35=0|34=322|49=Acceptor|52=20181226-19:39:51.403|56=Initiator|10=039|
8=FIX.4.4|9=62|35=0|34=323|49=Initiator|52=20181226-19:39:57.401|56=Acceptor|10=044|
8=FIX.4.4|9=62|35=0|34=323|49=Acceptor|52=20181226-19:39:57.403|56=Initiator|10=046|
8=FIX.4.4|9=62|35=0|34=324|49=Initiator|52=20181226-19:40:03.401|56=Acceptor|10=028|
8=FIX.4.4|9=62|35=0|34=324|49=Acceptor|52=20181226-19:40:03.403|56=Initiator|10=030|
8=FIX.4.4|9=62|35=0|34=325|49=Initiator|52=20181226-19:40:09.401|56=Acceptor|10=035|
8=FIX.4.4|9=62|35=0|34=325|49=Acceptor|52=20181226-19:40:09.403|56=Initiator|10=037|
8=FIX.4.4|9=62|35=0|34=326|49=Initiator|52=20181226-19:40:15.401|56=Acceptor|10=033|
8=FIX.4.4|9=62|35=0|34=326|49=Acceptor|52=20181226-19:40:15.403|56=Initiator|10=035|
8=FIX.4.4|9=62|35=0|34=327|49=Initiator|52=20181226-19:40:21.401|56=Acceptor|10=031|
8=FIX.4.4|9=62|35=0|34=327|49=Acceptor|52=20181226-19:40:21.404|56=Initiator|10=034|
8=FIX.4.4|9=62|35=0|34=328|49=Initiator|52=20181226-19:40:27.401|56=Acceptor|10=038|
8=FIX.4.4|9=62|35=0|34=328|49=Acceptor|52=20181226-19:40:27.404|56=Initiator|10=041|
8=FIX.4.4|9=62|35=0|34=329|49=Initiator|52=20181226-19:40:33.401|56=Acceptor|10=036|
8=FIX.4.4|9=62|35=0|34=329|49=Acceptor|52=20181226-19:40:33.403|56=Initiator|10=038|
8=FIX.4.4|9=62|35=0|34=330|49=Initiator|52=20181226-19:40:39.401|56=Acceptor|10=034|
8=FIX.4.4|9=62|35=0|34=330|49=Acceptor|52=20181226-19:40:39.404|56=Initiator|10=037|
8=FIX.4.4|9=62|35=0|34=331|49=Initiator|52=20181226-19:40:45.401|56=Acceptor|10=032|
8=FIX.4.4|9=62|35=0|34=331|49=Acceptor|52=20181226-19:40:45.404|56=Initiator|10=035|
8=FIX.4.4|9=62|35=0|34=332|49=Initiator|52=20181226-19:40:51.401|56=Acceptor|10=030|
8=FIX.4.4|9=62|35=0|34=332|49=Acceptor|52=20181226-19:40:51.404|56=Initiator|10=033|
8=FIX.4.4|9=62|35=0|34=333|49=Initiator|52=20181226-19:40:57.401|56=Acceptor|10=037|
8=FIX.4.4|9=62|35=0|34=333|49=Acceptor|52=20181226-19:40:57.404|56=Initiator|10=040|
8=FIX.4.4|9=62|35=0|34=334|49=Initiator|52=20181226-19:41:03.401|56=Acceptor|10=030|
8=FIX.4.4|9=62|35=0|34=334|49=Acceptor|52=20181226-19:41:03.403|56=Initiator|10=032|
8=FIX.4.4|9=62|35=0|34=335|49=Initiator|52=20181226-19:41:09.401|56=Acceptor|10=037|
8=FIX.4.4|9=62|35=0|34=335|49=Acceptor|52=20181226-19:41:09.403|56=Initiator|10=039|
8=FIX.4.4|9=62|35=0|34=336|49=Initiator|52=20181226-19:41:15.401|56=Acceptor|10=035|
8=FIX.4.4|9=62|35=0|34=336|49=Acceptor|52=20181226-19:41:15.403|56=Initiator|10=037|
8=FIX.4.4|9=62|35=0|34=337|49=Initiator|52=20181226-19:41:21.401|56=Acceptor|10=033|
8=FIX.4.4|9=62|35=0|34=337|49=Acceptor|52=20181226-19:41:21.403|56=Initiator|10=035|
8=FIX.4.4|9=62|35=0|34=338|49=Initiator|52=20181226-19:41:27.401|56=Acceptor|10=040|
8=FIX.4.4|9=62|35=0|34=338|49=Acceptor|52=20181226-19:41:27.403|56=Initiator|10=042|
8=FIX.4.4|9=62|35=0|34=339|49=Initiator|52=20181226-19:41:33.401|56=Acceptor|10=038|
8=FIX.4.4|9=62|35=0|34=339|49=Acceptor|52=20181226-19:41:33.403|56=Initiator|10=040|
8=FIX.4.4|9=62|35=0|34=340|49=Initiator|52=20181226-19:41:39.401|56=Acceptor|10=036|
8=FIX.4.4|9=62|35=0|34=340|49=Acceptor|52=20181226-19:41:39.403|56=Initiator|10=038|
8=FIX.4.4|9=62|35=0|34=341|49=Initiator|52=20181226-19:41:45.401|56=Acceptor|10=034|
8=FIX.4.4|9=62|35=0|34=341|49=Acceptor|52=20181226-19:41:45.403|56=Initiator|10=036|
8=FIX.4.4|9=62|35=0|34=342|49=Initiator|52=20181226-19:41:51.401|56=Acceptor|10=032|
8=FIX.4.4|9=62|35=0|34=342|49=Acceptor|52=20181226-19:41:51.403|56=Initiator|10=034|
8=FIX.4.4|9=62|35=0|34=343|49=Initiator|52=20181226-19:41:57.401|56=Acceptor|10=039|
8=FIX.4.4|9=62|35=0|34=343|49=Acceptor|52=20181226-19:41:57.403|56=Initiator|10=041|
8=FIX.4.4|9=62|35=0|34=344|49=Initiator|52=20181226-19:42:03.401|56=Acceptor|10=032|
8=FIX.4.4|9=62|35=0|34=344|49=Acceptor|52=20181226-19:42:03.404|56=Initiator|10=035|
8=FIX.4.4|9=62|35=0|34=345|49=Initiator|52=20181226-19:42:09.401|56=Acceptor|10=039|
8=FIX.4.4|9=62|35=0|34=345|49=Acceptor|52=20181226-19:42:09.404|56=Initiator|10=042|
8=FIX.4.4|9=62|35=0|34=346|49=Initiator|52=20181226-19:42:15.401|56=Acceptor|10=037|
8=FIX.4.4|9=62|35=0|34=346|49=Acceptor|52=20181226-19:42:15.404|56=Initiator|10=040|
8=FIX.4.4|9=62|35=0|34=347|49=Initiator|52=20181226-19:42:21.401|56=Acceptor|10=035|
8=FIX.4.4|9=62|35=0|34=347|49=Acceptor|52=20181226-19:42:21.404|56=Initiator|10=038|
8=FIX.4.4|9=62|35=0|34=348|49=Initiator|52=20181226-19:42:27.401|56=Acceptor|10=042|
8=FIX.4.4|9=62|35=0|34=348|49=Acceptor|52=20181226-19:42:27.403|56=Initiator|10=044|
8=FIX.4.4|9=62|35=0|34=349|49=Initiator|52=20181226-19:42:33.401|56=Acceptor|10=040|
8=FIX.4.4|9=62|35=0|34=349|49=Acceptor|52=20181226-19:42:33.403|56=Initiator|10=042|
8=FIX.4.4|9=62|35=0|34=350|49=Initiator|52=20181226-19:42:39.401|56=Acceptor|10=038|
8=FIX.4.4|9=62|35=0|34=350|49=Acceptor|52=20181226-19:42:39.403|56=Initiator|10=040|
8=FIX.4.4|9=62|35=0|34=351|49=Initiator|52=20181226-19:42:45.401|56=Acceptor|10=036|
8=FIX.4.4|9=62|35=0|34=351|49=Acceptor|52=20181226-19:42:45.404|56=Initiator|10=039|
8=FIX.4.4|9=62|35=0|34=352|49=Initiator|52=20181226-19:42:51.401|56=Acceptor|10=034|
8=FIX.4.4|9=62|35=0|34=352|49=Acceptor|52=20181226-19:42:51.403|56=Initiator|10=036|
8=FIX.4.4|9=62|35=0|34=353|49=Initiator|52=20181226-19:42:57.401|56=Acceptor|10=041|
8=FIX.4.4|9=62|35=0|34=353|49=Acceptor|52=20181226-19:42:57.403|56=Initiator|10=043|
8=FIX.4.4|9=62|35=0|34=354|49=Initiator|52=20181226-19:43:03.401|56=Acceptor|10=034|
8=FIX.4.4|9=62|35=0|34=354|49=Acceptor|52=20181226-19:43:03.403|56=Initiator|10=036|
8=FIX.4.4|9=62|35=0|34=355|49=Initiator|52=20181226-19:43:09.401|56=Acceptor|10=041|
8=FIX.4.4|9=62|35=0|34=355|49=Acceptor|52=20181226-19:43:09.403|56=Initiator|10=043|
8=FIX.4.4|9=62|35=0|34=356|49=Initiator|52=20181226-19:43:15.401|56=Acceptor|10=039|
8=FIX.4.4|9=62|35=0|34=356|49=Acceptor|52=20181226-19:43:15.403|56=Initiator|10=041|
8=FIX.4.4|9=62|35=0|34=357|49=Initiator|52=20181226-19:43:21.401|56=Acceptor|10=037|
8=FIX.4.4|9=62|35=0|34=357|49=Acceptor|52=20181226-19:43:21.403|56=Initiator|10=039|
8=FIX.4.4|9=62|35=0|34=358|49=Initiator|52=20181226-19:43:27.401|56=Acceptor|10=044|
8=FIX.4.4|9=62|35=0|34=358|49=Acceptor|52=20181226-19:43:27.403|56=Initiator|10=046|
8=FIX.4.4|9=62|35=0|34=359|49=Initiator|52=20181226-19:43:33.401|56=Acceptor|10=042|
8=FIX.4.4|9=62|35=0|34=359|49=Acceptor|52=20181226-19:43:33.403|56=Initiator|10=044|
8=FIX.4.4|9=62|35=0|34=360|49=Initiator|52=20181226-19:43:39.401|56=Acceptor|10=040|
8=FIX.4.4|9=62|35=0|34=360|49=Acceptor|52=20181226-19:43:39.403|56=Initiator|10=042|
8=FIX.4.4|9=62|35=0|34=361|49=Initiator|52=20181226-19:43:45.401|56=Acceptor|10=038|
8=FIX.4.4|9=62|35=0|34=361|49=Acceptor|52=20181226-19:43:45.403|56=Initiator|10=040|
8=FIX.4.4|9=62|35=0|34=362|49=Initiator|52=20181226-19:43:51.401|56=Acceptor|10=036|
8=FIX.4.4|9=62|35=0|34=362|49=Acceptor|52=20181226-19:43:51.403|56=Initiator|10=038|
8=FIX.4.4|9=62|35=0|34=363|49=Initiator|52=20181226-19:43:57.401|56=Acceptor|10=043|
8=FIX.4.4|9=62|35=0|34=363|49=Acceptor|52=20181226-19:43:57.403|56=Initiator|10=045|
8=FIX.4.4|9=62|35=0|34=364|49=Initiator|52=20181226-19:44:03.401|56=Acceptor|10=036|
8=FIX.4.4|9=62|35=0|34=364|49=Acceptor|52=20181226-19:44:03.403|56=Initiator|10=038|
8=FIX.4.4|9=62|35=0|34=365|49=Initiator|52=20181226-19:44:09.401|56=Acceptor|10=043|
8=FIX.4.4|9=62|35=0|34=365|49=Acceptor|52=20181226-19:44:09.404|56=Initiator|10=046|
8=FIX.4.4|9=62|35=0|34=366|49=Initiator|52=20181226-19:44:15.401|56=Acceptor|10=041|
8=FIX.4.4|9=62|35=0|34=366|49=Acceptor|52=20181226-19:44:15.404|56=Initiator|10=044|
8=FIX.4.4|9=62|35=0|34=367|49=Initiator|52=20181226-19:44:21.401|56=Acceptor|10=039|
8=FIX.4.4|9=62|35=0|34=367|49=Acceptor|52=20181226-19:44:21.404|56=Initiator|10=042|
8=FIX.4.4|9=62|35=0|34=368|49=Initiator|52=20181226-19:44:27.401|56=Acceptor|10=046|
8=FIX.4.4|9=62|35=0|34=368|49=Acceptor|52=20181226-19:44:27.403|56=Initiator|10=048|
8=FIX.4.4|9=62|35=0|34=369|49=Initiator|52=20181226-19:44:33.401|56=Acceptor|10=044|
8=FIX.4.4|9=62|35=0|34=369|49=Acceptor|52=20181226-19:44:33.404|56=Initiator|10=047|
8=FIX.4.4|9=62|35=0|34=370|49=Initiator|52=20181226-19:44:39.401|56=Acceptor|10=042|
8=FIX.4.4|9=62|35=0|34=370|49=Acceptor|52=20181226-19:44:39.403|56=Initiator|10=044|
8=FIX.4.4|9=62|35=0|34=371|49=Initiator|52=20181226-19:44:45.401|56=Acceptor|10=040|
8=FIX.4.4|9=62|35=0|34=371|49=Acceptor|52=20181226-19:44:45.405|56=Initiator|10=044|
8=FIX.4.4|9=62|35=0|34=372|49=Initiator|52=20181226-19:44:51.401|56=Acceptor|10=038|
8=FIX.4.4|9=62|35=0|34=372|49=Acceptor|52=20181226-19:44:51.404|56=Initiator|10=041|
8=FIX.4.4|9=62|35=0|34=373|49=Initiator|52=20181226-19:44:57.401|56=Acceptor|10=045|
8=FIX.4.4|9=62|35=0|34=373|49=Acceptor|52=20181226-19:44:57.404|56=Initiator|10=048|
8=FIX.4.4|9=62|35=0|34=374|49=Initiator|52=20181226-19:45:03.401|56=Acceptor|10=038|
8=FIX.4.4|9=62|35=0|34=374|49=Acceptor|52=20181226-19:45:03.403|56=Initiator|10=040|
8=FIX.4.4|9=62|35=0|34=375|49=Initiator|52=20181226-19:45:09.401|56=Acceptor|10=045|
8=FIX.4.4|9=62|35=0|34=375|49=Acceptor|52=20181226-19:45:09.402|56=Initiator|10=046|
8=FIX.4.4|9=62|35=0|34=376|49=Initiator|52=20181226-19:45:15.401|56=Acceptor|10=043|
8=FIX.4.4|9=62|35=0|34=376|49=Acceptor|52=20181226-19:45:15.403|56=Initiator|10=045|
8=FIX.4.4|9=62|35=0|34=377|49=Initiator|52=20181226-19:45:21.401|56=Acceptor|10=041|
8=FIX.4.4|9=62|35=0|34=377|49=Acceptor|52=20181226-19:45:21.403|56=Initiator|10=043|
8=FIX.4.4|9=62|35=0|34=378|49=Initiator|52=20181226-19:45:27.401|56=Acceptor|10=048|
8=FIX.4.4|9=62|35=0|34=378|49=Acceptor|52=20181226-19:45:27.403|56=Initiator|10=050|
8=FIX.4.4|9=62|35=0|34=379|49=Initiator|52=20181226-19:45:33.401|56=Acceptor|10=046|
8=FIX.4.4|9=62|35=0|34=379|49=Acceptor|52=20181226-19:45:33.403|56=Initiator|10=048|
8=FIX.4.4|9=62|35=0|34=380|49=Initiator|52=20181226-19:45:39.401|56=Acceptor|10=044|
8=FIX.4.4|9=62|35=0|34=380|49=Acceptor|52=20181226-19:45:39.404|56=Initiator|10=047|
8=FIX.4.4|9=62|35=0|34=381|49=Initiator|52=20181226-19:45:45.401|56=Acceptor|10=042|
8=FIX.4.4|9=62|35=0|34=381|49=Acceptor|52=20181226-19:45:45.403|56=Initiator|10=044|
8=FIX.4.4|9=62|35=0|34=382|49=Initiator|52=20181226-19:45:51.401|56=Acceptor|10=040|
8=FIX.4.4|9=62|35=0|34=382|49=Acceptor|52=20181226-19:45:51.404|56=Initiator|10=043|
8=FIX.4.4|9=62|35=0|34=383|49=Initiator|52=20181226-19:45:57.401|56=Acceptor|10=047|
8=FIX.4.4|9=62|35=0|34=383|49=Acceptor|52=20181226-19:45:57.404|56=Initiator|10=050|
8=FIX.4.4|9=62|35=0|34=384|49=Initiator|52=20181226-19:46:03.401|56=Acceptor|10=040|
8=FIX.4.4|9=62|35=0|34=384|49=Acceptor|52=20181226-19:46:03.403|56=Initiator|10=042|
8=FIX.4.4|9=62|35=0|34=385|49=Initiator|52=20181226-19:46:09.401|56=Acceptor|10=047|
8=FIX.4.4|9=62|35=0|34=385|49=Acceptor|52=20181226-19:46:09.403|56=Initiator|10=049|
8=FIX.4.4|9=62|35=0|34=386|49=Initiator|52=20181226-19:46:15.401|56=Acceptor|10=045|
8=FIX.4.4|9=62|35=0|34=386|49=Acceptor|52=20181226-19:46:15.403|56=Initiator|10=047|
8=FIX.4.4|9=62|35=0|34=387|49=Initiator|52=20181226-19:46:21.401|56=Acceptor|10=043|
8=FIX.4.4|9=62|35=0|34=387|49=Acceptor|52=20181226-19:46:21.403|56=Initiator|10=045|
8=FIX.4.4|9=62|35=0|34=388|49=Initiator|52=20181226-19:46:27.401|56=Acceptor|10=050|
8=FIX.4.4|9=62|35=0|34=388|49=Acceptor|52=20181226-19:46:27.403|56=Initiator|10=052|
8=FIX.4.4|9=62|35=0|34=389|49=Initiator|52=20181226-19:46:33.401|56=Acceptor|10=048|
8=FIX.4.4|9=62|35=0|34=389|49=Acceptor|52=20181226-19:46:33.403|56=Initiator|10=050|
8=FIX.4.4|9=62|35=0|34=390|49=Initiator|52=20181226-19:46:39.401|56=Acceptor|10=046|
8=FIX.4.4|9=62|35=0|34=390|49=Acceptor|52=20181226-19:46:39.403|56=Initiator|10=048|
8=FIX.4.4|9=62|35=0|34=391|49=Initiator|52=20181226-19:46:45.401|56=Acceptor|10=044|
8=FIX.4.4|9=62|35=0|34=391|49=Acceptor|52=20181226-19:46:45.403|56=Initiator|10=046|
8=FIX.4.4|9=62|35=0|34=392|49=Initiator|52=20181226-19:46:51.401|56=Acceptor|10=042|
8=FIX.4.4|9=62|35=0|34=392|49=Acceptor|52=20181226-19:46:51.403|56=Initiator|10=044|
8=FIX.4.4|9=62|35=0|34=393|49=Initiator|52=20181226-19:46:57.401|56=Acceptor|10=049|
8=FIX.4.4|9=62|35=0|34=393|49=Acceptor|52=20181226-19:46:57.403|56=Initiator|10=051|
8=FIX.4.4|9=62|35=0|34=394|49=Initiator|52=20181226-19:47:03.401|56=Acceptor|10=042|
8=FIX.4.4|9=62|35=0|34=394|49=Acceptor|52=20181226-19:47:03.403|56=Initiator|10=044|
8=FIX.4.4|9=62|35=0|34=395|49=Initiator|52=20181226-19:47:09.401|56=Acceptor|10=049|
8=FIX.4.4|9=62|35=0|34=395|49=Acceptor|52=20181226-19:47:09.404|56=Initiator|10=052|
8=FIX.4.4|9=62|35=0|34=396|49=Initiator|52=20181226-19:47:15.401|56=Acceptor|10=047|
8=FIX.4.4|9=62|35=0|34=396|49=Acceptor|52=20181226-19:47:15.403|56=Initiator|10=049|
8=FIX.4.4|9=62|35=0|34=397|49=Initiator|52=20181226-19:47:21.401|56=Acceptor|10=045|
8=FIX.4.4|9=62|35=0|34=397|49=Acceptor|52=20181226-19:47:21.403|56=Initiator|10=047|
8=FIX.4.4|9=62|35=0|34=398|49=Initiator|52=20181226-19:47:27.401|56=Acceptor|10=052|
8=FIX.4.4|9=62|35=0|34=398|49=Acceptor|52=20181226-19:47:27.403|56=Initiator|10=054|
8=FIX.4.4|9=62|35=0|34=399|49=Initiator|52=20181226-19:47:33.401|56=Acceptor|10=050|
8=FIX.4.4|9=62|35=0|34=399|49=Acceptor|52=20181226-19:47:33.403|56=Initiator|10=052|
8=FIX.4.4|9=62|35=0|34=400|49=Initiator|52=20181226-19:47:39.401|56=Acceptor|10=039|
8=FIX.4.4|9=62|35=0|34=400|49=Acceptor|52=20181226-19:47:39.403|56=Initiator|10=041|
8=FIX.4.4|9=62|35=0|34=401|49=Initiator|52=20181226-19:47:45.401|56=Acceptor|10=037|
8=FIX.4.4|9=62|35=0|34=401|49=Acceptor|52=20181226-19:47:45.403|56=Initiator|10=039|
8=FIX.4.4|9=62|35=0|34=402|49=Initiator|52=20181226-19:47:51.401|56=Acceptor|10=035|
8=FIX.4.4|9=62|35=0|34=402|49=Acceptor|52=20181226-19:47:51.403|56=Initiator|10=037|
8=FIX.4.4|9=62|35=0|34=403|49=Initiator|52=20181226-19:47:57.401|56=Acceptor|10=042|
8=FIX.4.4|9=62|35=0|34=403|49=Acceptor|52=20181226-19:47:57.403|56=Initiator|10=044|
8=FIX.4.4|9=62|35=0|34=404|49=Initiator|52=20181226-19:48:03.401|56=Acceptor|10=035|
8=FIX.4.4|9=62|35=0|34=404|49=Acceptor|52=20181226-19:48:03.403|56=Initiator|10=037|
8=FIX.4.4|9=62|35=0|34=405|49=Initiator|52=20181226-19:48:09.401|56=Acceptor|10=042|
8=FIX.4.4|9=62|35=0|34=405|49=Acceptor|52=20181226-19:48:09.403|56=Initiator|10=044|
8=FIX.4.4|9=62|35=0|34=406|49=Initiator|52=20181226-19:48:15.401|56=Acceptor|10=040|
8=FIX.4.4|9=62|35=0|34=406|49=Acceptor|52=20181226-19:48:15.403|56=Initiator|10=042|
8=FIX.4.4|9=62|35=0|34=407|49=Initiator|52=20181226-19:48:21.401|56=Acceptor|10=038|
8=FIX.4.4|9=62|35=0|34=407|49=Acceptor|52=20181226-19:48:21.403|56=Initiator|10=040|
8=FIX.4.4|9=62|35=0|34=408|49=Initiator|52=20181226-19:48:27.401|56=Acceptor|10=045|
8=FIX.4.4|9=62|35=0|34=408|49=Acceptor|52=20181226-19:48:27.403|56=Initiator|10=047|
8=FIX.4.4|9=62|35=0|34=409|49=Initiator|52=20181226-19:48:33.401|56=Acceptor|10=043|
8=FIX.4.4|9=62|35=0|34=409|49=Acceptor|52=20181226-19:48:33.403|56=Initiator|10=045|
8=FIX.4.4|9=62|35=0|34=410|49=Initiator|52=20181226-19:48:39.401|56=Acceptor|10=041|
8=FIX.4.4|9=62|35=0|34=410|49=Acceptor|52=20181226-19:48:39.403|56=Initiator|10=043|
8=FIX.4.4|9=62|35=0|34=411|49=Initiator|52=20181226-19:48:45.401|56=Acceptor|10=039|
8=FIX.4.4|9=62|35=0|34=411|49=Acceptor|52=20181226-19:48:45.403|56=Initiator|10=041|
8=FIX.4.4|9=62|35=0|34=412|49=Initiator|52=20181226-19:48:51.401|56=Acceptor|10=037|
8=FIX.4.4|9=62|35=0|34=412|49=Acceptor|52=20181226-19:48:51.403|56=Initiator|10=039|
8=FIX.4.4|9=62|35=0|34=413|49=Initiator|52=20181226-19:48:57.401|56=Acceptor|10=044|
8=FIX.4.4|9=62|35=0|34=413|49=Acceptor|52=20181226-19:48:57.404|56=Initiator|10=047|
8=FIX.4.4|9=62|35=0|34=414|49=Initiator|52=20181226-19:49:03.401|56=Acceptor|10=037|
8=FIX.4.4|9=62|35=0|34=414|49=Acceptor|52=20181226-19:49:03.403|56=Initiator|10=039|
8=FIX.4.4|9=62|35=0|34=415|49=Initiator|52=20181226-19:49:09.401|56=Acceptor|10=044|
8=FIX.4.4|9=62|35=0|34=415|49=Acceptor|52=20181226-19:49:09.403|56=Initiator|10=046|
8=FIX.4.4|9=62|35=0|34=416|49=Initiator|52=20181226-19:49:15.401|56=Acceptor|10=042|
8=FIX.4.4|9=62|35=0|34=416|49=Acceptor|52=20181226-19:49:15.404|56=Initiator|10=045|
8=FIX.4.4|9=62|35=0|34=417|49=Initiator|52=20181226-19:49:21.401|56=Acceptor|10=040|
8=FIX.4.4|9=62|35=0|34=417|49=Acceptor|52=20181226-19:49:21.403|56=Initiator|10=042|
8=FIX.4.4|9=62|35=0|34=418|49=Initiator|52=20181226-19:49:27.401|56=Acceptor|10=047|
8=FIX.4.4|9=62|35=0|34=418|49=Acceptor|52=20181226-19:49:27.403|56=Initiator|10=049|
8=FIX.4.4|9=62|35=0|34=419|49=Initiator|52=20181226-19:49:33.401|56=Acceptor|10=045|
8=FIX.4.4|9=62|35=0|34=419|49=Acceptor|52=20181226-19:49:33.403|56=Initiator|10=047|
8=FIX.4.4|9=62|35=0|34=420|49=Initiator|52=20181226-19:49:39.401|56=Acceptor|10=043|
8=FIX.4.4|9=62|35=0|34=420|49=Acceptor|52=20181226-19:49:39.403|56=Initiator|10=045|
8=FIX.4.4|9=62|35=0|34=421|49=Initiator|52=20181226-19:49:45.401|56=Acceptor|10=041|
8=FIX.4.4|9=62|35=0|34=421|49=Acceptor|52=20181226-19:49:45.403|56=Initiator|10=043|
8=FIX.4.4|9=62|35=0|34=422|49=Initiator|52=20181226-19:49:51.401|56=Acceptor|10=039|
8=FIX.4.4|9=62|35=0|34=422|49=Acceptor|52=20181226-19:49:51.403|56=Initiator|10=041|
8=FIX.4.4|9=62|35=0|34=423|49=Initiator|52=20181226-19:49:57.401|56=Acceptor|10=046|
8=FIX.4.4|9=62|35=0|34=423|49=Acceptor|52=20181226-19:49:57.403|56=Initiator|10=048|
8=FIX.4.4|9=62|35=0|34=424|49=Initiator|52=20181226-19:50:03.401|56=Acceptor|10=030|
8=FIX.4.4|9=62|35=0|34=424|49=Acceptor|52=20181226-19:50:03.403|56=Initiator|10=032|
8=FIX.4.4|9=62|35=0|34=425|49=Initiator|52=20181226-19:50:09.401|56=Acceptor|10=037|
8=FIX.4.4|9=62|35=0|34=425|49=Acceptor|52=20181226-19:50:09.403|56=Initiator|10=039|
8=FIX.4.4|9=62|35=0|34=426|49=Initiator|52=20181226-19:50:15.401|56=Acceptor|10=035|
8=FIX.4.4|9=62|35=0|34=426|49=Acceptor|52=20181226-19:50:15.404|56=Initiator|10=038|
8=FIX.4.4|9=62|35=0|34=427|49=Initiator|52=20181226-19:50:21.401|56=Acceptor|10=033|
8=FIX.4.4|9=62|35=0|34=427|49=Acceptor|52=20181226-19:50:21.403|56=Initiator|10=035|
8=FIX.4.4|9=62|35=0|34=428|49=Initiator|52=20181226-19:50:27.401|56=Acceptor|10=040|
8=FIX.4.4|9=62|35=0|34=428|49=Acceptor|52=20181226-19:50:27.404|56=Initiator|10=043|
8=FIX.4.4|9=62|35=0|34=429|49=Initiator|52=20181226-19:50:33.401|56=Acceptor|10=038|
8=FIX.4.4|9=62|35=0|34=429|49=Acceptor|52=20181226-19:50:33.403|56=Initiator|10=040|
8=FIX.4.4|9=62|35=0|34=430|49=Initiator|52=20181226-19:50:39.401|56=Acceptor|10=036|
8=FIX.4.4|9=62|35=0|34=430|49=Acceptor|52=20181226-19:50:39.404|56=Initiator|10=039|
8=FIX.4.4|9=62|35=0|34=431|49=Initiator|52=20181226-19:50:45.401|56=Acceptor|10=034|
8=FIX.4.4|9=62|35=0|34=431|49=Acceptor|52=20181226-19:50:45.403|56=Initiator|10=036|
8=FIX.4.4|9=62|35=0|34=432|49=Initiator|52=20181226-19:50:51.401|56=Acceptor|10=032|
8=FIX.4.4|9=62|35=0|34=432|49=Acceptor|52=20181226-19:50:51.403|56=Initiator|10=034|
8=FIX.4.4|9=62|35=0|34=433|49=Initiator|52=20181226-19:50:57.401|56=Acceptor|10=039|
8=FIX.4.4|9=62|35=0|34=433|49=Acceptor|52=20181226-19:50:57.403|56=Initiator|10=041|
8=FIX.4.4|9=62|35=0|34=434|49=Initiator|52=20181226-19:51:03.401|56=Acceptor|10=032|
8=FIX.4.4|9=62|35=0|34=434|49=Acceptor|52=20181226-19:51:03.403|56=Initiator|10=034|
8=FIX.4.4|9=62|35=0|34=435|49=Initiator|52=20181226-19:51:09.401|56=Acceptor|10=039|
8=FIX.4.4|9=62|35=0|34=435|49=Acceptor|52=20181226-19:51:09.403|56=Initiator|10=041|
8=FIX.4.4|9=62|35=0|34=436|49=Initiator|52=20181226-19:51:15.401|56=Acceptor|10=037|
8=FIX.4.4|9=62|35=0|34=436|49=Acceptor|52=20181226-19:51:15.403|56=Initiator|10=039|
8=FIX.4.4|9=62|35=0|34=437|49=Initiator|52=20181226-19:51:21.401|56=Acceptor|10=035|
8=FIX.4.4|9=62|35=0|34=437|49=Acceptor|52=20181226-19:51:21.403|56=Initiator|10=037|
8=FIX.4.4|9=62|35=0|34=438|49=Initiator|52=20181226-19:51:27.401|56=Acceptor|10=042|
8=FIX.4.4|9=62|35=0|34=438|49=Acceptor|52=20181226-19:51:27.403|56=Initiator|10=044|
8=FIX.4.4|9=62|35=0|34=439|49=Initiator|52=20181226-19:51:33.401|56=Acceptor|10=040|
8=FIX.4.4|9=62|35=0|34=439|49=Acceptor|52=20181226-19:51:33.403|56=Initiator|10=042|
8=FIX.4.4|9=62|35=0|34=440|49=Initiator|52=20181226-19:51:39.401|56=Acceptor|10=038|
8=FIX.4.4|9=62|35=0|34=440|49=Acceptor|52=20181226-19:51:39.403|56=Initiator|10=040|
8=FIX.4.4|9=62|35=0|34=441|49=Initiator|52=20181226-19:51:45.401|56=Acceptor|10=036|
8=FIX.4.4|9=62|35=0|34=441|49=Acceptor|52=20181226-19:51:45.403|56=Initiator|10=038|
8=FIX.4.4|9=62|35=0|34=442|49=Initiator|52=20181226-19:51:51.401|56=Acceptor|10=034|
8=FIX.4.4|9=62|35=0|34=442|49=Acceptor|52=20181226-19:51:51.403|56=Initiator|10=036|
8=FIX.4.4|9=62|35=0|34=443|49=Initiator|52=20181226-19:51:57.401|56=Acceptor|10=041|
8=FIX.4.4|9=62|35=0|34=443|49=Acceptor|52=20181226-19:51:57.403|56=Initiator|10=043|
8=FIX.4.4|9=62|35=0|34=444|49=Initiator|52=20181226-19:52:03.401|56=Acceptor|10=034|
8=FIX.4.4|9=62|35=0|34=444|49=Acceptor|52=20181226-19:52:03.404|56=Initiator|10=037|
8=FIX.4.4|9=62|35=0|34=445|49=Initiator|52=20181226-19:52:09.401|56=Acceptor|10=041|
8=FIX.4.4|9=62|35=0|34=445|49=Acceptor|52=20181226-19:52:09.403|56=Initiator|10=043|
8=FIX.4.4|9=62|35=0|34=446|49=Initiator|52=20181226-19:52:15.401|56=Acceptor|10=039|
8=FIX.4.4|9=62|35=0|34=446|49=Acceptor|52=20181226-19:52:15.403|56=Initiator|10=041|
8=FIX.4.4|9=62|35=0|34=447|49=Initiator|52=20181226-19:52:21.401|56=Acceptor|10=037|
8=FIX.4.4|9=62|35=0|34=447|49=Acceptor|52=20181226-19:52:21.403|56=Initiator|10=039|
8=FIX.4.4|9=62|35=0|34=448|49=Initiator|52=20181226-19:52:27.401|56=Acceptor|10=044|
8=FIX.4.4|9=62|35=0|34=448|49=Acceptor|52=20181226-19:52:27.403|56=Initiator|10=046|
8=FIX.4.4|9=62|35=0|34=449|49=Initiator|52=20181226-19:52:33.401|56=Acceptor|10=042|
8=FIX.4.4|9=62|35=0|34=449|49=Acceptor|52=20181226-19:52:33.403|56=Initiator|10=044|
8=FIX.4.4|9=62|35=0|34=450|49=Initiator|52=20181226-19:52:39.401|56=Acceptor|10=040|
8=FIX.4.4|9=62|35=0|34=450|49=Acceptor|52=20181226-19:52:39.403|56=Initiator|10=042|
8=FIX.4.4|9=62|35=0|34=451|49=Initiator|52=20181226-19:52:45.401|56=Acceptor|10=038|
8=FIX.4.4|9=62|35=0|34=451|49=Acceptor|52=20181226-19:52:45.403|56=Initiator|10=040|
8=FIX.4.4|9=62|35=0|34=452|49=Initiator|52=20181226-19:52:51.401|56=Acceptor|10=036|
8=FIX.4.4|9=62|35=0|34=452|49=Acceptor|52=20181226-19:52:51.403|56=Initiator|10=038|
8=FIX.4.4|9=62|35=0|34=453|49=Initiator|52=20181226-19:52:57.401|56=Acceptor|10=043|
8=FIX.4.4|9=62|35=0|34=453|49=Acceptor|52=20181226-19:52:57.403|56=Initiator|10=045|
8=FIX.4.4|9=62|35=0|34=454|49=Initiator|52=20181226-19:53:03.401|56=Acceptor|10=036|
8=FIX.4.4|9=62|35=0|34=454|49=Acceptor|52=20181226-19:53:03.403|56=Initiator|10=038|
8=FIX.4.4|9=62|35=0|34=455|49=Initiator|52=20181226-19:53:09.401|56=Acceptor|10=043|
8=FIX.4.4|9=62|35=0|34=455|49=Acceptor|52=20181226-19:53:09.403|56=Initiator|10=045|
8=FIX.4.4|9=62|35=0|34=456|49=Initiator|52=20181226-19:53:15.401|56=Acceptor|10=041|
8=FIX.4.4|9=62|35=0|34=456|49=Acceptor|52=20181226-19:53:15.403|56=Initiator|10=043|
8=FIX.4.4|9=62|35=0|34=457|49=Initiator|52=20181226-19:53:21.401|56=Acceptor|10=039|
8=FIX.4.4|9=62|35=0|34=457|49=Acceptor|52=20181226-19:53:21.403|56=Initiator|10=041|
8=FIX.4.4|9=62|35=0|34=458|49=Initiator|52=20181226-19:53:27.401|56=Acceptor|10=046|
8=FIX.4.4|9=62|35=0|34=458|49=Acceptor|52=20181226-19:53:27.403|56=Initiator|10=048|
8=FIX.4.4|9=62|35=0|34=459|49=Initiator|52=20181226-19:53:33.401|56=Acceptor|10=044|
8=FIX.4.4|9=62|35=0|34=459|49=Acceptor|52=20181226-19:53:33.403|56=Initiator|10=046|
8=FIX.4.4|9=62|35=0|34=460|49=Initiator|52=20181226-19:53:39.401|56=Acceptor|10=042|
8=FIX.4.4|9=62|35=0|34=460|49=Acceptor|52=20181226-19:53:39.403|56=Initiator|10=044|
8=FIX.4.4|9=62|35=0|34=461|49=Initiator|52=20181226-19:53:45.401|56=Acceptor|10=040|
8=FIX.4.4|9=62|35=0|34=461|49=Acceptor|52=20181226-19:53:45.403|56=Initiator|10=042|
8=FIX.4.4|9=62|35=0|34=462|49=Initiator|52=20181226-19:53:51.401|56=Acceptor|10=038|
8=FIX.4.4|9=62|35=0|34=462|49=Acceptor|52=20181226-19:53:51.403|56=Initiator|10=040|
8=FIX.4.4|9=62|35=0|34=463|49=Initiator|52=20181226-19:53:57.401|56=Acceptor|10=045|
8=FIX.4.4|9=62|35=0|34=463|49=Acceptor|52=20181226-19:53:57.403|56=Initiator|10=047|
8=FIX.4.4|9=62|35=0|34=464|49=Initiator|52=20181226-19:54:03.401|56=Acceptor|10=038|
8=FIX.4.4|9=62|35=0|34=464|49=Acceptor|52=20181226-19:54:03.404|56=Initiator|10=041|
8=FIX.4.4|9=62|35=0|34=465|49=Initiator|52=20181226-19:54:09.401|56=Acceptor|10=045|
8=FIX.4.4|9=62|35=0|34=465|49=Acceptor|52=20181226-19:54:09.403|56=Initiator|10=047|
8=FIX.4.4|9=62|35=0|34=466|49=Initiator|52=20181226-19:54:15.401|56=Acceptor|10=043|
8=FIX.4.4|9=62|35=0|34=466|49=Acceptor|52=20181226-19:54:15.403|56=Initiator|10=045|
8=FIX.4.4|9=62|35=0|34=467|49=Initiator|52=20181226-19:54:21.401|56=Acceptor|10=041|
8=FIX.4.4|9=62|35=0|34=467|49=Acceptor|52=20181226-19:54:21.403|56=Initiator|10=043|
8=FIX.4.4|9=62|35=0|34=468|49=Initiator|52=20181226-19:54:27.401|56=Acceptor|10=048|
8=FIX.4.4|9=62|35=0|34=468|49=Acceptor|52=20181226-19:54:27.403|56=Initiator|10=050|
8=FIX.4.4|9=62|35=0|34=469|49=Initiator|52=20181226-19:54:33.401|56=Acceptor|10=046|
8=FIX.4.4|9=62|35=0|34=469|49=Acceptor|52=20181226-19:54:33.403|56=Initiator|10=048|
8=FIX.4.4|9=62|35=0|34=470|49=Initiator|52=20181226-19:54:39.401|56=Acceptor|10=044|
8=FIX.4.4|9=62|35=0|34=470|49=Acceptor|52=20181226-19:54:39.403|56=Initiator|10=046|
8=FIX.4.4|9=62|35=0|34=471|49=Initiator|52=20181226-19:54:45.401|56=Acceptor|10=042|
8=FIX.4.4|9=62|35=0|34=471|49=Acceptor|52=20181226-19:54:45.403|56=Initiator|10=044|
8=FIX.4.4|9=62|35=0|34=472|49=Initiator|52=20181226-19:54:51.401|56=Acceptor|10=040|
8=FIX.4.4|9=62|35=0|34=472|49=Acceptor|52=20181226-19:54:51.403|56=Initiator|10=042|
8=FIX.4.4|9=62|35=0|34=473|49=Initiator|52=20181226-19:54:57.401|56=Acceptor|10=047|
8=FIX.4.4|9=62|35=0|34=473|49=Acceptor|52=20181226-19:54:57.403|56=Initiator|10=049|
8=FIX.4.4|9=62|35=0|34=474|49=Initiator|52=20181226-19:55:03.401|56=Acceptor|10=040|
8=FIX.4.4|9=62|35=0|34=474|49=Acceptor|52=20181226-19:55:03.404|56=Initiator|10=043|
8=FIX.4.4|9=62|35=0|34=475|49=Initiator|52=20181226-19:55:09.401|56=Acceptor|10=047|
8=FIX.4.4|9=62|35=0|34=475|49=Acceptor|52=20181226-19:55:09.403|56=Initiator|10=049|
8=FIX.4.4|9=62|35=0|34=476|49=Initiator|52=20181226-19:55:15.401|56=Acceptor|10=045|
8=FIX.4.4|9=62|35=0|34=476|49=Acceptor|52=20181226-19:55:15.403|56=Initiator|10=047|
8=FIX.4.4|9=62|35=0|34=477|49=Initiator|52=20181226-19:55:21.401|56=Acceptor|10=043|
8=FIX.4.4|9=62|35=0|34=477|49=Acceptor|52=20181226-19:55:21.403|56=Initiator|10=045|
8=FIX.4.4|9=62|35=0|34=478|49=Initiator|52=20181226-19:55:27.401|56=Acceptor|10=050|
8=FIX.4.4|9=62|35=0|34=478|49=Acceptor|52=20181226-19:55:27.402|56=Initiator|10=051|
8=FIX.4.4|9=62|35=0|34=479|49=Initiator|52=20181226-19:55:33.401|56=Acceptor|10=048|
8=FIX.4.4|9=62|35=0|34=479|49=Acceptor|52=20181226-19:55:33.402|56=Initiator|10=049|
8=FIX.4.4|9=62|35=0|34=480|49=Initiator|52=20181226-19:55:39.401|56=Acceptor|10=046|
8=FIX.4.4|9=62|35=0|34=480|49=Acceptor|52=20181226-19:55:39.403|56=Initiator|10=048|
8=FIX.4.4|9=62|35=0|34=481|49=Initiator|52=20181226-19:55:45.401|56=Acceptor|10=044|
8=FIX.4.4|9=62|35=0|34=481|49=Acceptor|52=20181226-19:55:45.403|56=Initiator|10=046|
8=FIX.4.4|9=62|35=0|34=482|49=Initiator|52=20181226-19:55:51.401|56=Acceptor|10=042|
8=FIX.4.4|9=62|35=0|34=482|49=Acceptor|52=20181226-19:55:51.403|56=Initiator|10=044|
8=FIX.4.4|9=62|35=0|34=483|49=Initiator|52=20181226-19:55:57.401|56=Acceptor|10=049|
8=FIX.4.4|9=62|35=0|34=483|49=Acceptor|52=20181226-19:55:57.402|56=Initiator|10=050|
8=FIX.4.4|9=62|35=0|34=484|49=Initiator|52=20181226-19:56:03.401|56=Acceptor|10=042|
8=FIX.4.4|9=62|35=0|34=484|49=Acceptor|52=20181226-19:56:03.403|56=Initiator|10=044|
8=FIX.4.4|9=62|35=0|34=485|49=Initiator|52=20181226-19:56:09.401|56=Acceptor|10=049|
8=FIX.4.4|9=62|35=0|34=485|49=Acceptor|52=20181226-19:56:09.403|56=Initiator|10=051|
8=FIX.4.4|9=62|35=0|34=486|49=Initiator|52=20181226-19:56:15.401|56=Acceptor|10=047|
8=FIX.4.4|9=62|35=0|34=486|49=Acceptor|52=20181226-19:56:15.403|56=Initiator|10=049|
8=FIX.4.4|9=62|35=0|34=487|49=Initiator|52=20181226-19:56:21.401|56=Acceptor|10=045|
8=FIX.4.4|9=62|35=0|34=487|49=Acceptor|52=20181226-19:56:21.403|56=Initiator|10=047|
8=FIX.4.4|9=62|35=0|34=488|49=Initiator|52=20181226-19:56:27.401|56=Acceptor|10=052|
8=FIX.4.4|9=62|35=0|34=488|49=Acceptor|52=20181226-19:56:27.402|56=Initiator|10=053|
8=FIX.4.4|9=62|35=0|34=489|49=Initiator|52=20181226-19:56:33.401|56=Acceptor|10=050|
8=FIX.4.4|9=62|35=0|34=489|49=Acceptor|52=20181226-19:56:33.402|56=Initiator|10=051|
8=FIX.4.4|9=62|35=0|34=490|49=Initiator|52=20181226-19:56:39.401|56=Acceptor|10=048|
8=FIX.4.4|9=62|35=0|34=490|49=Acceptor|52=20181226-19:56:39.402|56=Initiator|10=049|
8=FIX.4.4|9=62|35=0|34=491|49=Initiator|52=20181226-19:56:45.401|56=Acceptor|10=046|
8=FIX.4.4|9=62|35=0|34=491|49=Acceptor|52=20181226-19:56:45.402|56=Initiator|10=047|
8=FIX.4.4|9=62|35=0|34=492|49=Initiator|52=20181226-19:56:51.401|56=Acceptor|10=044|
8=FIX.4.4|9=62|35=0|34=492|49=Acceptor|52=20181226-19:56:51.402|56=Initiator|10=045|
8=FIX.4.4|9=62|35=0|34=493|49=Initiator|52=20181226-19:56:57.401|56=Acceptor|10=051|
8=FIX.4.4|9=62|35=0|34=493|49=Acceptor|52=20181226-19:56:57.403|56=Initiator|10=053|
8=FIX.4.4|9=62|35=0|34=494|49=Initiator|52=20181226-19:57:03.401|56=Acceptor|10=044|
8=FIX.4.4|9=62|35=0|34=494|49=Acceptor|52=20181226-19:57:03.402|56=Initiator|10=045|
8=FIX.4.4|9=62|35=0|34=495|49=Initiator|52=20181226-19:57:09.401|56=Acceptor|10=051|
8=FIX.4.4|9=62|35=0|34=495|49=Acceptor|52=20181226-19:57:09.402|56=Initiator|10=052|
8=FIX.4.4|9=62|35=0|34=496|49=Initiator|52=20181226-19:57:15.401|56=Acceptor|10=049|
8=FIX.4.4|9=62|35=0|34=496|49=Acceptor|52=20181226-19:57:15.402|56=Initiator|10=050|
8=FIX.4.4|9=62|35=0|34=497|49=Initiator|52=20181226-19:57:21.401|56=Acceptor|10=047|
8=FIX.4.4|9=62|35=0|34=497|49=Acceptor|52=20181226-19:57:21.404|56=Initiator|10=050|
8=FIX.4.4|9=62|35=0|34=498|49=Initiator|52=20181226-19:57:27.401|56=Acceptor|10=054|
8=FIX.4.4|9=62|35=0|34=498|49=Acceptor|52=20181226-19:57:27.403|56=Initiator|10=056|
8=FIX.4.4|9=62|35=0|34=499|49=Initiator|52=20181226-19:57:33.401|56=Acceptor|10=052|
8=FIX.4.4|9=62|35=0|34=499|49=Acceptor|52=20181226-19:57:33.403|56=Initiator|10=054|
8=FIX.4.4|9=62|35=0|34=500|49=Initiator|52=20181226-19:57:39.401|56=Acceptor|10=041|
8=FIX.4.4|9=62|35=0|34=500|49=Acceptor|52=20181226-19:57:39.403|56=Initiator|10=043|
8=FIX.4.4|9=62|35=0|34=501|49=Initiator|52=20181226-19:57:45.401|56=Acceptor|10=039|
8=FIX.4.4|9=62|35=0|34=501|49=Acceptor|52=20181226-19:57:45.403|56=Initiator|10=041|
8=FIX.4.4|9=62|35=0|34=502|49=Initiator|52=20181226-19:57:51.404|56=Acceptor|10=040|
8=FIX.4.4|9=62|35=0|34=502|49=Acceptor|52=20181226-19:57:51.404|56=Initiator|10=040|
8=FIX.4.4|9=62|35=0|34=503|49=Initiator|52=20181226-19:57:57.401|56=Acceptor|10=044|
8=FIX.4.4|9=62|35=0|34=503|49=Acceptor|52=20181226-19:57:57.402|56=Initiator|10=045|
8=FIX.4.4|9=62|35=0|34=504|49=Initiator|52=20181226-19:58:03.401|56=Acceptor|10=037|
8=FIX.4.4|9=62|35=0|34=504|49=Acceptor|52=20181226-19:58:03.403|56=Initiator|10=039|
8=FIX.4.4|9=62|35=0|34=505|49=Initiator|52=20181226-19:58:09.401|56=Acceptor|10=044|
8=FIX.4.4|9=62|35=0|34=505|49=Acceptor|52=20181226-19:58:09.403|56=Initiator|10=046|
8=FIX.4.4|9=62|35=0|34=506|49=Initiator|52=20181226-19:58:15.401|56=Acceptor|10=042|
8=FIX.4.4|9=62|35=0|34=506|49=Acceptor|52=20181226-19:58:15.403|56=Initiator|10=044|
8=FIX.4.4|9=62|35=0|34=507|49=Initiator|52=20181226-19:58:21.401|56=Acceptor|10=040|
8=FIX.4.4|9=62|35=0|34=507|49=Acceptor|52=20181226-19:58:21.402|56=Initiator|10=041|
8=FIX.4.4|9=62|35=0|34=508|49=Initiator|52=20181226-19:58:27.401|56=Acceptor|10=047|
8=FIX.4.4|9=62|35=0|34=508|49=Acceptor|52=20181226-19:58:27.402|56=Initiator|10=048|
8=FIX.4.4|9=62|35=0|34=509|49=Initiator|52=20181226-19:58:33.401|56=Acceptor|10=045|
8=FIX.4.4|9=62|35=0|34=509|49=Acceptor|52=20181226-19:58:33.403|56=Initiator|10=047|
8=FIX.4.4|9=62|35=0|34=510|49=Initiator|52=20181226-19:58:39.401|56=Acceptor|10=043|
8=FIX.4.4|9=62|35=0|34=510|49=Acceptor|52=20181226-19:58:39.402|56=Initiator|10=044|
8=FIX.4.4|9=62|35=0|34=511|49=Initiator|52=20181226-19:58:45.401|56=Acceptor|10=041|
8=FIX.4.4|9=62|35=0|34=511|49=Acceptor|52=20181226-19:58:45.403|56=Initiator|10=043|
8=FIX.4.4|9=62|35=0|34=512|49=Initiator|52=20181226-19:58:51.401|56=Acceptor|10=039|
8=FIX.4.4|9=62|35=0|34=512|49=Acceptor|52=20181226-19:58:51.403|56=Initiator|10=041|
8=FIX.4.4|9=62|35=0|34=513|49=Initiator|52=20181226-19:58:57.401|56=Acceptor|10=046|
8=FIX.4.4|9=62|35=0|34=513|49=Acceptor|52=20181226-19:58:57.403|56=Initiator|10=048|
8=FIX.4.4|9=62|35=0|34=514|49=Initiator|52=20181226-19:59:03.401|56=Acceptor|10=039|
8=FIX.4.4|9=62|35=0|34=514|49=Acceptor|52=20181226-19:59:03.403|56=Initiator|10=041|
8=FIX.4.4|9=62|35=0|34=515|49=Initiator|52=20181226-19:59:09.401|56=Acceptor|10=046|
8=FIX.4.4|9=62|35=0|34=515|49=Acceptor|52=20181226-19:59:09.402|56=Initiator|10=047|
8=FIX.4.4|9=62|35=0|34=516|49=Initiator|52=20181226-19:59:15.401|56=Acceptor|10=044|
8=FIX.4.4|9=62|35=0|34=516|49=Acceptor|52=20181226-19:59:15.403|56=Initiator|10=046|
8=FIX.4.4|9=62|35=0|34=517|49=Initiator|52=20181226-19:59:21.401|56=Acceptor|10=042|
8=FIX.4.4|9=62|35=0|34=517|49=Acceptor|52=20181226-19:59:21.403|56=Initiator|10=044|
8=FIX.4.4|9=62|35=0|34=518|49=Initiator|52=20181226-19:59:27.401|56=Acceptor|10=049|
8=FIX.4.4|9=62|35=0|34=518|49=Acceptor|52=20181226-19:59:27.402|56=Initiator|10=050|
8=FIX.4.4|9=62|35=0|34=519|49=Initiator|52=20181226-19:59:33.401|56=Acceptor|10=047|
8=FIX.4.4|9=62|35=0|34=519|49=Acceptor|52=20181226-19:59:33.402|56=Initiator|10=048|
8=FIX.4.4|9=62|35=0|34=520|49=Initiator|52=20181226-19:59:39.401|56=Acceptor|10=045|
8=FIX.4.4|9=62|35=0|34=520|49=Acceptor|52=20181226-19:59:39.403|56=Initiator|10=047|
8=FIX.4.4|9=62|35=0|34=521|49=Initiator|52=20181226-19:59:45.401|56=Acceptor|10=043|
8=FIX.4.4|9=62|35=0|34=521|49=Acceptor|52=20181226-19:59:45.402|56=Initiator|10=044|
8=FIX.4.4|9=62|35=0|34=522|49=Initiator|52=20181226-19:59:51.401|56=Acceptor|10=041|
8=FIX.4.4|9=62|35=0|34=522|49=Acceptor|52=20181226-19:59:51.402|56=Initiator|10=042|
8=FIX.4.4|9=62|35=0|34=523|49=Initiator|52=20181226-19:59:57.401|56=Acceptor|10=048|
8=FIX.4.4|9=62|35=0|34=523|49=Acceptor|52=20181226-19:59:57.403|56=Initiator|10=050|
8=FIX.4.4|9=62|35=0|34=524|49=Initiator|52=20181226-20:00:03.401|56=Acceptor|10=018|
8=FIX.4.4|9=62|35=0|34=524|49=Acceptor|52=20181226-20:00:03.402|56=Initiator|10=019|
8=FIX.4.4|9=62|35=0|34=525|49=Initiator|52=20181226-20:00:09.401|56=Acceptor|10=025|
8=FIX.4.4|9=62|35=0|34=525|49=Acceptor|52=20181226-20:00:09.403|56=Initiator|10=027|
8=FIX.4.4|9=62|35=0|34=526|49=Initiator|52=20181226-20:00:15.401|56=Acceptor|10=023|
8=FIX.4.4|9=62|35=0|34=526|49=Acceptor|52=20181226-20:00:15.403|56=Initiator|10=025|
8=FIX.4.4|9=62|35=0|34=527|49=Initiator|52=20181226-20:00:21.401|56=Acceptor|10=021|
8=FIX.4.4|9=62|35=0|34=527|49=Acceptor|52=20181226-20:00:21.402|56=Initiator|10=022|
8=FIX.4.4|9=62|35=0|34=528|49=Initiator|52=20181226-20:00:27.401|56=Acceptor|10=028|
8=FIX.4.4|9=62|35=0|34=528|49=Acceptor|52=20181226-20:00:27.402|56=Initiator|10=029|
8=FIX.4.4|9=62|35=0|34=529|49=Initiator|52=20181226-20:00:33.401|56=Acceptor|10=026|
8=FIX.4.4|9=62|35=0|34=529|49=Acceptor|52=20181226-20:00:33.403|56=Initiator|10=028|
8=FIX.4.4|9=62|35=0|34=530|49=Initiator|52=20181226-20:00:39.401|56=Acceptor|10=024|
8=FIX.4.4|9=62|35=0|34=530|49=Acceptor|52=20181226-20:00:39.403|56=Initiator|10=026|
8=FIX.4.4|9=62|35=0|34=531|49=Initiator|52=20181226-20:00:45.401|56=Acceptor|10=022|
8=FIX.4.4|9=62|35=0|34=531|49=Acceptor|52=20181226-20:00:45.402|56=Initiator|10=023|
8=FIX.4.4|9=62|35=0|34=532|49=Initiator|52=20181226-20:00:51.401|56=Acceptor|10=020|
8=FIX.4.4|9=62|35=0|34=532|49=Acceptor|52=20181226-20:00:51.403|56=Initiator|10=022|
8=FIX.4.4|9=62|35=0|34=533|49=Initiator|52=20181226-20:00:57.401|56=Acceptor|10=027|
8=FIX.4.4|9=62|35=0|34=533|49=Acceptor|52=20181226-20:00:57.403|56=Initiator|10=029|
8=FIX.4.4|9=62|35=0|34=534|49=Initiator|52=20181226-20:01:03.401|56=Acceptor|10=020|
8=FIX.4.4|9=62|35=0|34=534|49=Acceptor|52=20181226-20:01:03.403|56=Initiator|10=022|
8=FIX.4.4|9=62|35=0|34=535|49=Initiator|52=20181226-20:01:09.401|56=Acceptor|10=027|
8=FIX.4.4|9=62|35=0|34=535|49=Acceptor|52=20181226-20:01:09.402|56=Initiator|10=028|
8=FIX.4.4|9=62|35=0|34=536|49=Initiator|52=20181226-20:01:15.401|56=Acceptor|10=025|
8=FIX.4.4|9=62|35=0|34=536|49=Acceptor|52=20181226-20:01:15.403|56=Initiator|10=027|
8=FIX.4.4|9=62|35=0|34=537|49=Initiator|52=20181226-20:01:21.401|56=Acceptor|10=023|
8=FIX.4.4|9=62|35=0|34=537|49=Acceptor|52=20181226-20:01:21.403|56=Initiator|10=025|
8=FIX.4.4|9=62|35=0|34=538|49=Initiator|52=20181226-20:01:27.401|56=Acceptor|10=030|
8=FIX.4.4|9=62|35=0|34=538|49=Acceptor|52=20181226-20:01:27.403|56=Initiator|10=032|
8=FIX.4.4|9=62|35=0|34=539|49=Initiator|52=20181226-20:01:33.401|56=Acceptor|10=028|
8=FIX.4.4|9=62|35=0|34=539|49=Acceptor|52=20181226-20:01:33.403|56=Initiator|10=030|
8=FIX.4.4|9=62|35=0|34=540|49=Initiator|52=20181226-20:01:39.401|56=Acceptor|10=026|
8=FIX.4.4|9=62|35=0|34=540|49=Acceptor|52=20181226-20:01:39.404|56=Initiator|10=029|
8=FIX.4.4|9=62|35=0|34=541|49=Initiator|52=20181226-20:01:45.401|56=Acceptor|10=024|
8=FIX.4.4|9=62|35=0|34=541|49=Acceptor|52=20181226-20:01:45.403|56=Initiator|10=026|
8=FIX.4.4|9=62|35=0|34=542|49=Initiator|52=20181226-20:01:51.401|56=Acceptor|10=022|
8=FIX.4.4|9=62|35=0|34=542|49=Acceptor|52=20181226-20:01:51.402|56=Initiator|10=023|
8=FIX.4.4|9=62|35=0|34=543|49=Initiator|52=20181226-20:01:57.401|56=Acceptor|10=029|
8=FIX.4.4|9=62|35=0|34=543|49=Acceptor|52=20181226-20:01:57.402|56=Initiator|10=030|
8=FIX.4.4|9=62|35=0|34=544|49=Initiator|52=20181226-20:02:03.401|56=Acceptor|10=022|
8=FIX.4.4|9=62|35=0|34=544|49=Acceptor|52=20181226-20:02:03.403|56=Initiator|10=024|
8=FIX.4.4|9=62|35=0|34=545|49=Initiator|52=20181226-20:02:09.401|56=Acceptor|10=029|
8=FIX.4.4|9=62|35=0|34=545|49=Acceptor|52=20181226-20:02:09.402|56=Initiator|10=030|
8=FIX.4.4|9=62|35=0|34=546|49=Initiator|52=20181226-20:02:15.401|56=Acceptor|10=027|
8=FIX.4.4|9=62|35=0|34=546|49=Acceptor|52=20181226-20:02:15.403|56=Initiator|10=029|
8=FIX.4.4|9=62|35=0|34=547|49=Initiator|52=20181226-20:02:21.401|56=Acceptor|10=025|
8=FIX.4.4|9=62|35=0|34=547|49=Acceptor|52=20181226-20:02:21.403|56=Initiator|10=027|
8=FIX.4.4|9=62|35=0|34=548|49=Initiator|52=20181226-20:02:27.401|56=Acceptor|10=032|
8=FIX.4.4|9=62|35=0|34=548|49=Acceptor|52=20181226-20:02:27.403|56=Initiator|10=034|
8=FIX.4.4|9=62|35=0|34=549|49=Initiator|52=20181226-20:02:33.401|56=Acceptor|10=030|
8=FIX.4.4|9=62|35=0|34=549|49=Acceptor|52=20181226-20:02:33.402|56=Initiator|10=031|
8=FIX.4.4|9=62|35=0|34=550|49=Initiator|52=20181226-20:02:39.401|56=Acceptor|10=028|
8=FIX.4.4|9=62|35=0|34=550|49=Acceptor|52=20181226-20:02:39.402|56=Initiator|10=029|
8=FIX.4.4|9=62|35=0|34=551|49=Initiator|52=20181226-20:02:45.401|56=Acceptor|10=026|
8=FIX.4.4|9=62|35=0|34=551|49=Acceptor|52=20181226-20:02:45.403|56=Initiator|10=028|
8=FIX.4.4|9=62|35=0|34=552|49=Initiator|52=20181226-20:02:51.401|56=Acceptor|10=024|
8=FIX.4.4|9=62|35=0|34=552|49=Acceptor|52=20181226-20:02:51.402|56=Initiator|10=025|
8=FIX.4.4|9=62|35=0|34=553|49=Initiator|52=20181226-20:02:57.401|56=Acceptor|10=031|
8=FIX.4.4|9=62|35=0|34=553|49=Acceptor|52=20181226-20:02:57.403|56=Initiator|10=033|
8=FIX.4.4|9=62|35=0|34=554|49=Initiator|52=20181226-20:03:03.401|56=Acceptor|10=024|
8=FIX.4.4|9=62|35=0|34=554|49=Acceptor|52=20181226-20:03:03.402|56=Initiator|10=025|
8=FIX.4.4|9=62|35=0|34=555|49=Initiator|52=20181226-20:03:09.401|56=Acceptor|10=031|
8=FIX.4.4|9=62|35=0|34=555|49=Acceptor|52=20181226-20:03:09.402|56=Initiator|10=032|
8=FIX.4.4|9=62|35=0|34=556|49=Initiator|52=20181226-20:03:15.401|56=Acceptor|10=029|
8=FIX.4.4|9=62|35=0|34=556|49=Acceptor|52=20181226-20:03:15.403|56=Initiator|10=031|
8=FIX.4.4|9=62|35=0|34=557|49=Initiator|52=20181226-20:03:21.401|56=Acceptor|10=027|
8=FIX.4.4|9=62|35=0|34=557|49=Acceptor|52=20181226-20:03:21.403|56=Initiator|10=029|
8=FIX.4.4|9=62|35=0|34=558|49=Initiator|52=20181226-20:03:27.401|56=Acceptor|10=034|
8=FIX.4.4|9=62|35=0|34=558|49=Acceptor|52=20181226-20:03:27.403|56=Initiator|10=036|
8=FIX.4.4|9=62|35=0|34=559|49=Initiator|52=20181226-20:03:33.401|56=Acceptor|10=032|
8=FIX.4.4|9=62|35=0|34=559|49=Acceptor|52=20181226-20:03:33.403|56=Initiator|10=034|
8=FIX.4.4|9=62|35=0|34=560|49=Initiator|52=20181226-20:03:39.401|56=Acceptor|10=030|
8=FIX.4.4|9=62|35=0|34=560|49=Acceptor|52=20181226-20:03:39.402|56=Initiator|10=031|
