8=FIX.4.4|9=77|35=A|34=1|49=Initiator|52=20181227-12:45:05.643|56=Acceptor|98=0|108=6|141=Y|10=237|8=FIX.4.4|9=60|35=0|34=2|49=Initiator|52=20181227-12:45:11.643|56=Acceptor|10=185|8=FIX.4.4|9=60|35=0|34=3|49=Initiator|52=20181227-12:45:17.643|56=Acceptor|10=192|