8=FIX.4.4|9=77|35=A|34=1|49=Acceptor|52=20181227-12:45:05.646|56=Initiator|98=0|108=6|141=Y|10=240|8=FIX.4.4|9=60|35=0|34=2|49=Acceptor|52=20181227-12:45:11.645|56=Initiator|10=187|8=FIX.4.4|9=60|35=0|34=3|49=Acceptor|52=20181227-12:45:17.645|56=Initiator|10=194|