8=FIX.4.4|9=77|35=A|34=1|49=Acceptor|52=20181227-12:45:05.646|56=Initiator|98=0|108=6|141=Y|10=240|8=FIX.4.4|9=60|35=0|34=2|49=Acceptor|52=20181227-12:45:11.645|56=Initiator|10=187|8=FIX.4.4|9=60|35=0|34=3|49=Acceptor|52=20181227-12:45:17.645|56=Initiator|10=194|8=FIX.4.4|9=60|35=0|34=4|49=Acceptor|52=20181227-12:45:23.644|56=Initiator|10=191|8=FIX.4.4|9=60|35=0|34=5|49=Acceptor|52=20181227-12:45:29.645|56=Initiator|10=199|8=FIX.4.4|9=60|35=0|34=6|49=Acceptor|52=20181227-12:45:35.645|56=Initiator|10=197|8=FIX.4.4|9=60|35=0|34=7|49=Acceptor|52=20181227-12:45:41.646|56=Initiator|10=196|8=FIX.4.4|9=60|35=0|34=8|49=Acceptor|52=20181227-12:45:47.646|56=Initiator|10=203|8=FIX.4.4|9=60|35=0|34=9|49=Acceptor|52=20181227-12:45:53.645|56=Initiator|10=200|8=FIX.4.4|9=61|35=0|34=10|49=Acceptor|52=20181227-12:45:59.646|56=Initiator|10=248|