8=FIX.4.4|9=77|35=A|34=1|49=Initiator|52=20181227-12:45:05.643|56=Acceptor|98=0|108=6|141=Y|10=237|8=FIX.4.4|9=60|35=0|34=2|49=Initiator|52=20181227-12:45:11.643|56=Acceptor|10=185|8=FIX.4.4|9=60|35=0|34=3|49=Initiator|52=20181227-12:45:17.643|56=Acceptor|10=192|8=FIX.4.4|9=60|35=0|34=4|49=Initiator|52=20181227-12:45:23.643|56=Acceptor|10=190|8=FIX.4.4|9=60|35=0|34=5|49=Initiator|52=20181227-12:45:29.644|56=Acceptor|10=198|8=FIX.4.4|9=60|35=0|34=6|49=Initiator|52=20181227-12:45:35.643|56=Acceptor|10=195|8=FIX.4.4|9=60|35=0|34=7|49=Initiator|52=20181227-12:45:41.643|56=Acceptor|10=193|8=FIX.4.4|9=60|35=0|34=8|49=Initiator|52=20181227-12:45:47.644|56=Acceptor|10=201|8=FIX.4.4|9=60|35=0|34=9|49=Initiator|52=20181227-12:45:53.643|56=Acceptor|10=198|8=FIX.4.4|9=61|35=0|34=10|49=Initiator|52=20181227-12:45:59.644|56=Acceptor|10=246|